{
  "contractName": "Milestone",
  "abi": [
    {
      "constant": false,
      "inputs": [
        {
          "name": "new_address",
          "type": "address"
        }
      ],
      "name": "upgrade",
      "outputs": [],
      "payable": false,
      "stateMutability": "nonpayable",
      "type": "function"
    },
    {
      "constant": true,
      "inputs": [],
      "name": "last_completed_migration",
      "outputs": [
        {
          "name": "",
          "type": "uint256"
        }
      ],
      "payable": false,
      "stateMutability": "view",
      "type": "function"
    },
    {
      "constant": false,
      "inputs": [
        {
          "name": "_uniqueCode",
          "type": "uint256"
        },
        {
          "name": "_name",
          "type": "string"
        }
      ],
      "name": "addCodeProject",
      "outputs": [],
      "payable": false,
      "stateMutability": "nonpayable",
      "type": "function"
    },
    {
      "constant": false,
      "inputs": [
        {
          "name": "_uniqueCode",
          "type": "uint256"
        },
        {
          "name": "_name",
          "type": "string"
        }
      ],
      "name": "addVideo",
      "outputs": [],
      "payable": false,
      "stateMutability": "nonpayable",
      "type": "function"
    },
    {
      "constant": false,
      "inputs": [
        {
          "name": "_uniqueCode",
          "type": "uint256"
        },
        {
          "name": "_name",
          "type": "string"
        }
      ],
      "name": "addQuiz",
      "outputs": [],
      "payable": false,
      "stateMutability": "nonpayable",
      "type": "function"
    },
    {
      "constant": true,
      "inputs": [],
      "name": "owner",
      "outputs": [
        {
          "name": "",
          "type": "address"
        }
      ],
      "payable": false,
      "stateMutability": "view",
      "type": "function"
    },
    {
      "constant": false,
      "inputs": [
        {
          "name": "completed",
          "type": "uint256"
        }
      ],
      "name": "setCompleted",
      "outputs": [],
      "payable": false,
      "stateMutability": "nonpayable",
      "type": "function"
    },
    {
      "constant": false,
      "inputs": [
        {
          "name": "_uniqueCode",
          "type": "uint256"
        },
        {
          "name": "_name",
          "type": "string"
        }
      ],
      "name": "createMilestone",
      "outputs": [],
      "payable": false,
      "stateMutability": "nonpayable",
      "type": "function"
    },
    {
      "constant": false,
      "inputs": [
        {
          "name": "_MilestoneUniqueCode",
          "type": "uint256"
        },
        {
          "name": "_VideoUniqueCode",
          "type": "uint256"
        },
        {
          "name": "_share",
          "type": "uint8"
        }
      ],
      "name": "addVideoToMilestone",
      "outputs": [],
      "payable": false,
      "stateMutability": "nonpayable",
      "type": "function"
    },
    {
      "constant": false,
      "inputs": [
        {
          "name": "_MilestoneUniqueCode",
          "type": "uint256"
        },
        {
          "name": "_CodeProjectUniqueCode",
          "type": "uint256"
        },
        {
          "name": "_share",
          "type": "uint8"
        }
      ],
      "name": "addCodeProjectToMilestone",
      "outputs": [],
      "payable": false,
      "stateMutability": "nonpayable",
      "type": "function"
    },
    {
      "constant": false,
      "inputs": [
        {
          "name": "_MilestoneUniqueCode",
          "type": "uint256"
        },
        {
          "name": "_QuizUniqueCode",
          "type": "uint256"
        },
        {
          "name": "_share",
          "type": "uint8"
        }
      ],
      "name": "addQuizToMilestone",
      "outputs": [],
      "payable": false,
      "stateMutability": "nonpayable",
      "type": "function"
    }
  ],
  "bytecode": "0x6080604052336000806101000a81548173ffffffffffffffffffffffffffffffffffffffff021916908373ffffffffffffffffffffffffffffffffffffffff160217905550610cf5806100536000396000f3006080604052600436106100af576000357c0100000000000000000000000000000000000000000000000000000000900463ffffffff1680630900f010146100b457806319c16ce8146100f7578063445df0ac1461013b57806344d0be641461016657806352c63818146101d957806357c4699c1461024c57806369f6af9e146102bf5780638da5cb5b14610332578063e1a2d36114610389578063f485d1b6146103cd578063fdacd57614610411575b600080fd5b3480156100c057600080fd5b506100f5600480360381019080803573ffffffffffffffffffffffffffffffffffffffff16906020019092919050505061043e565b005b34801561010357600080fd5b506101396004803603810190808035906020019092919080359060200190929190803560ff169060200190929190505050610526565b005b34801561014757600080fd5b5061015061061f565b6040518082815260200191505060405180910390f35b34801561017257600080fd5b506101d760048036038101908080359060200190929190803590602001908201803590602001908080601f0160208091040260200160405190810160405280939291908181526020018383808284378201915050505050509192919290505050610625565b005b3480156101e557600080fd5b5061024a60048036038101908080359060200190929190803590602001908201803590602001908080601f01602080910402602001604051908101604052809392919081815260200183838082843782019150505050505091929192905050506106c7565b005b34801561025857600080fd5b506102bd60048036038101908080359060200190929190803590602001908201803590602001908080601f0160208091040260200160405190810160405280939291908181526020018383808284378201915050505050509192919290505050610799565b005b3480156102cb57600080fd5b5061033060048036038101908080359060200190929190803590602001908201803590602001908080601f016020809104026020016040519081016040528093929190818152602001838380828437820191505050505050919291929050505061086b565b005b34801561033e57600080fd5b5061034761093d565b604051808273ffffffffffffffffffffffffffffffffffffffff1673ffffffffffffffffffffffffffffffffffffffff16815260200191505060405180910390f35b34801561039557600080fd5b506103cb6004803603810190808035906020019092919080359060200190929190803560ff169060200190929190505050610962565b005b3480156103d957600080fd5b5061040f6004803603810190808035906020019092919080359060200190929190803560ff169060200190929190505050610a5b565b005b34801561041d57600080fd5b5061043c60048036038101908080359060200190929190505050610b54565b005b60008060009054906101000a900473ffffffffffffffffffffffffffffffffffffffff1673ffffffffffffffffffffffffffffffffffffffff163373ffffffffffffffffffffffffffffffffffffffff161415610522578190508073ffffffffffffffffffffffffffffffffffffffff1663fdacd5766001546040518263ffffffff167c010000000000000000000000000000000000000000000000000000000002815260040180828152602001915050600060405180830381600087803b15801561050957600080fd5b505af115801561051d573d6000803e3d6000fd5b505050505b5050565b6000806000809054906101000a900473ffffffffffffffffffffffffffffffffffffffff1673ffffffffffffffffffffffffffffffffffffffff163373ffffffffffffffffffffffffffffffffffffffff16141561061857600960008681526020019081526020016000205491506008828154811015156105a357fe5b90600052602060002090600802019050806003016105c085610bb4565b90806001815401808255809150509060018203906000526020600020016000909192909190915055508281600601600086815260200190815260200160002060006101000a81548160ff021916908360ff1602179055505b5050505050565b60015481565b60008060009054906101000a900473ffffffffffffffffffffffffffffffffffffffff1673ffffffffffffffffffffffffffffffffffffffff163373ffffffffffffffffffffffffffffffffffffffff1614156106c2576008808054905081548110151561068f57fe5b90600052602060002090600802019050828160000181905550818160010190805190602001906106c0929190610c24565b505b505050565b60008060009054906101000a900473ffffffffffffffffffffffffffffffffffffffff1673ffffffffffffffffffffffffffffffffffffffff163373ffffffffffffffffffffffffffffffffffffffff161415610794576003808054905081548110151561073157fe5b9060005260206000209060020201905082816000018190555081816001019080519060200190610762929190610c24565b5061077c6001600380549050610bd190919063ffffffff16565b60066000858152602001908152602001600020819055505b505050565b60008060009054906101000a900473ffffffffffffffffffffffffffffffffffffffff1673ffffffffffffffffffffffffffffffffffffffff163373ffffffffffffffffffffffffffffffffffffffff161415610866576002808054905081548110151561080357fe5b9060005260206000209060020201905082816000018190555081816001019080519060200190610834929190610c24565b5061084e6001600280549050610bd190919063ffffffff16565b60056000858152602001908152602001600020819055505b505050565b60008060009054906101000a900473ffffffffffffffffffffffffffffffffffffffff1673ffffffffffffffffffffffffffffffffffffffff163373ffffffffffffffffffffffffffffffffffffffff16141561093857600480805490508154811015156108d557fe5b9060005260206000209060020201905082816000018190555081816001019080519060200190610906929190610c24565b506109206001600480549050610bd190919063ffffffff16565b60076000858152602001908152602001600020819055505b505050565b6000809054906101000a900473ffffffffffffffffffffffffffffffffffffffff1681565b6000806000809054906101000a900473ffffffffffffffffffffffffffffffffffffffff1673ffffffffffffffffffffffffffffffffffffffff163373ffffffffffffffffffffffffffffffffffffffff161415610a5457600960008681526020019081526020016000205491506008828154811015156109df57fe5b90600052602060002090600802019050806002016109fc85610bea565b90806001815401808255809150509060018203906000526020600020016000909192909190915055508281600501600086815260200190815260200160002060006101000a81548160ff021916908360ff1602179055505b5050505050565b6000806000809054906101000a900473ffffffffffffffffffffffffffffffffffffffff1673ffffffffffffffffffffffffffffffffffffffff163373ffffffffffffffffffffffffffffffffffffffff161415610b4d5760096000868152602001908152602001600020549150600882815481101515610ad857fe5b9060005260206000209060080201905080600401610af585610c07565b90806001815401808255809150509060018203906000526020600020016000909192909190915055508281600701600086815260200190815260200160002060006101000a81548160ff021916908360ff1602179055505b5050505050565b6000809054906101000a900473ffffffffffffffffffffffffffffffffffffffff1673ffffffffffffffffffffffffffffffffffffffff163373ffffffffffffffffffffffffffffffffffffffff161415610bb157806001819055505b50565b600060066000838152602001908152602001600020549050919050565b6000828211151515610bdf57fe5b818303905092915050565b600060056000838152602001908152602001600020549050919050565b600060076000838152602001908152602001600020549050919050565b828054600181600116156101000203166002900490600052602060002090601f016020900481019282601f10610c6557805160ff1916838001178555610c93565b82800160010185558215610c93579182015b82811115610c92578251825591602001919060010190610c77565b5b509050610ca09190610ca4565b5090565b610cc691905b80821115610cc2576000816000905550600101610caa565b5090565b905600a165627a7a723058201d6fe731168867aeb0f3a531810ca841a8310cd469d179e483b5e604a50b95180029",
  "source": "pragma solidity ^0.4.23;\r\n\r\nimport \"./Migrations.sol\";\r\nimport \"./SafeMath.sol\";\r\n\r\ncontract Materials is Migrations {\r\n    using SafeMath for uint256;\r\n\r\n    struct Video {\r\n        uint256 uniqueCode;\r\n        string name;\r\n    }\r\n\r\n    struct CodeProject {\r\n        uint256 uniqueCode;\r\n        string name;\r\n    }\r\n\r\n    struct Quiz {\r\n        uint256 uniqueCode;\r\n        string name;\r\n    }\r\n\r\n    Video[] AllVideos;\r\n    CodeProject[] AllCodeProjects;\r\n    Quiz[] AllQuizes;\r\n\r\n    mapping(uint256 => uint256) videoIndex;\r\n    mapping(uint256 => uint256) codeProjectIndex;\r\n    mapping(uint256 => uint256) quizIndex;\r\n\r\n    function addVideo(uint256 _uniqueCode, string _name) public onlyOwner {\r\n        Video storage newVideo = AllVideos[AllVideos.length];\r\n        newVideo.uniqueCode = _uniqueCode;\r\n        newVideo.name = _name;\r\n        videoIndex[_uniqueCode] = AllVideos.length.sub(1);\r\n    }\r\n\r\n    function addCodeProject(uint256 _uniqueCode, string _name) public onlyOwner {\r\n        CodeProject storage newCodeProject = AllCodeProjects[AllCodeProjects.length];\r\n        newCodeProject.uniqueCode = _uniqueCode;\r\n        newCodeProject.name = _name;\r\n        codeProjectIndex[_uniqueCode] = AllCodeProjects.length.sub(1);\r\n    }\r\n\r\n    function addQuiz(uint256 _uniqueCode, string _name) public onlyOwner {\r\n        Quiz storage newQuiz = AllQuizes[AllQuizes.length];\r\n        newQuiz.uniqueCode = _uniqueCode;\r\n        newQuiz.name = _name;\r\n        quizIndex[_uniqueCode] = AllQuizes.length.sub(1);\r\n    }\r\n\r\n    function getVideoIndex(uint256 _uniqueCode) internal view returns (uint256) {\r\n        return videoIndex[_uniqueCode];\r\n    }\r\n\r\n    function getCodeProjectIndex(uint256 _uniqueCode) internal view returns (uint256) {\r\n        return codeProjectIndex[_uniqueCode];\r\n    }\r\n\r\n    function getQuizIndex(uint256 _uniqueCode) internal view returns (uint256) {\r\n        return quizIndex[_uniqueCode];\r\n    }\r\n\r\n}\r\n\r\ncontract Milestone is Materials {\r\n    struct mileStone {\r\n        uint256 uniqueCode;\r\n        string name;\r\n\r\n        uint256[] videoIndex;\r\n        uint256[] codeProjectIndex;\r\n        uint256[] quizIndex;\r\n\r\n        mapping(uint256 => uint8) videoShare;\r\n        mapping(uint256 => uint8) codeProjectShare;\r\n        mapping(uint256 => uint8) quizShare;\r\n    }\r\n\r\n    mileStone[] AllMilestones;\r\n    mapping(uint256 => uint256) MilestoneIndex;\r\n\r\n    function createMilestone(uint256 _uniqueCode, string _name) public onlyOwner {\r\n        mileStone storage newMilestone = AllMilestones[AllMilestones.length];\r\n        newMilestone.uniqueCode = _uniqueCode;\r\n        newMilestone.name = _name;\r\n    }\r\n\r\n    function addVideoToMilestone(uint256 _MilestoneUniqueCode, uint256 _VideoUniqueCode, uint8 _share) public onlyOwner {\r\n        uint256 milestoneIndex = MilestoneIndex[_MilestoneUniqueCode];\r\n        mileStone storage milestone = AllMilestones[milestoneIndex];\r\n        milestone.videoIndex.push(getVideoIndex(_VideoUniqueCode));\r\n        milestone.videoShare[_VideoUniqueCode] = _share;\r\n    }\r\n\r\n    function addCodeProjectToMilestone(uint256 _MilestoneUniqueCode, uint256 _CodeProjectUniqueCode, uint8 _share) public onlyOwner {\r\n        uint256 milestoneIndex = MilestoneIndex[_MilestoneUniqueCode];\r\n        mileStone storage milestone = AllMilestones[milestoneIndex];\r\n        milestone.codeProjectIndex.push(getCodeProjectIndex(_CodeProjectUniqueCode));\r\n        milestone.codeProjectShare[_CodeProjectUniqueCode] = _share;\r\n    }\r\n\r\n    function addQuizToMilestone(uint256 _MilestoneUniqueCode, uint256 _QuizUniqueCode, uint8 _share) public onlyOwner {\r\n        uint256 milestoneIndex = MilestoneIndex[_MilestoneUniqueCode];\r\n        mileStone storage milestone = AllMilestones[milestoneIndex];\r\n        milestone.quizIndex.push(getQuizIndex(_QuizUniqueCode));\r\n        milestone.quizShare[_QuizUniqueCode] = _share;\r\n    }\r\n\r\n    function getMilestoneIndex(uint256 _uniqueCode) internal view returns (uint256) {\r\n        return MilestoneIndex[_uniqueCode];\r\n    }\r\n\r\n    function getProgressByVideo(uint256 _videoIndex, uint256 _milestoneIndex) internal view returns (uint8) {\r\n        return AllMilestones[_milestoneIndex].videoShare[_videoIndex];\r\n    }\r\n\r\n    function getProgressByCodeProject(uint256 _codeProjectIndex, uint256 _milestoneIndex) internal view returns (uint8) {\r\n        return AllMilestones[_milestoneIndex].codeProjectShare[_codeProjectIndex];\r\n    }\r\n\r\n    function getProgressByQuiz(uint256 _quizIndex, uint256 _milestoneIndex) internal view returns (uint8) {\r\n        return AllMilestones[_milestoneIndex].quizShare[_quizIndex];\r\n    }\r\n}\r\n\r\ncontract Course is Milestone {\r\n    struct course {\r\n        uint256 uniqueCode;\r\n        string name;\r\n\r\n        uint256[] MilestoneIndex;\r\n        mapping(uint256 => uint256) MilestoneReward;\r\n\r\n        uint256 Reward;\r\n    }\r\n\r\n    course[] AllCourses;\r\n    mapping(uint256 => uint256) CourseIndex;\r\n\r\n    function createCourse(uint256 _uniqueCode, string _name, uint256 _reward) public onlyOwner {\r\n        uint256 courseIndex = CourseIndex[_uniqueCode];\r\n        course storage newCourse = AllCourses[courseIndex];\r\n        newCourse.uniqueCode = _uniqueCode;\r\n        newCourse.name = _name;\r\n        newCourse.Reward = _reward;\r\n    }\r\n\r\n    function addMilestoneToCourse(uint256 _courseCode, uint256 _milestoneCode, uint8 _reward) public onlyOwner {\r\n        uint256 courseIndex = CourseIndex[_courseCode];\r\n        course storage _course = AllCourses[courseIndex];\r\n        _course.MilestoneIndex.push(getMilestoneIndex(_milestoneCode));\r\n        _course.MilestoneReward[getMilestoneIndex(_milestoneCode)] = _reward;\r\n    }\r\n\r\n    function getCourseIndex(uint256 _courseCode) internal view returns (uint256) {\r\n        return CourseIndex[_courseCode];\r\n    }\r\n\r\n    function getMilestoneReward(uint256 _courseIndex, uint256 _milestoneIndex) internal view returns (uint256) {\r\n        return AllCourses[_courseIndex].MilestoneReward[_milestoneIndex];\r\n    }\r\n}",
  "sourcePath": "G:\\Root\\Blockchain\\Proof of Knowledge\\contracts\\Course.sol",
  "compiler": {
    "name": "solc",
    "version": "0.4.23+commit.124ca40d.Emscripten.clang"
  },
  "schemaVersion": "2.0.0",
  "updatedAt": "2018-05-28T11:00:47.593Z"
}