{
  "contractName": "POKToken",
  "abi": [
    {
      "constant": false,
      "inputs": [
        {
          "name": "new_address",
          "type": "address"
        }
      ],
      "name": "upgrade",
      "outputs": [],
      "payable": false,
      "stateMutability": "nonpayable",
      "type": "function"
    },
    {
      "constant": false,
      "inputs": [
        {
          "name": "_MilestoneUniqueCode",
          "type": "uint256"
        },
        {
          "name": "_CodeProjectUniqueCode",
          "type": "uint256"
        },
        {
          "name": "_share",
          "type": "uint8"
        }
      ],
      "name": "addCodeProjectToMilestone",
      "outputs": [],
      "payable": false,
      "stateMutability": "nonpayable",
      "type": "function"
    },
    {
      "constant": false,
      "inputs": [
        {
          "name": "_courseCode",
          "type": "uint256"
        },
        {
          "name": "_milestoneCode",
          "type": "uint256"
        },
        {
          "name": "_reward",
          "type": "uint8"
        }
      ],
      "name": "addMilestoneToCourse",
      "outputs": [],
      "payable": false,
      "stateMutability": "nonpayable",
      "type": "function"
    },
    {
      "constant": false,
      "inputs": [
        {
          "name": "_student",
          "type": "address"
        },
        {
          "name": "_courseCode",
          "type": "uint256"
        },
        {
          "name": "_milestoneCode",
          "type": "uint256"
        },
        {
          "name": "_quizCode",
          "type": "uint256"
        },
        {
          "name": "_result",
          "type": "uint8"
        }
      ],
      "name": "quizCompleted",
      "outputs": [],
      "payable": false,
      "stateMutability": "nonpayable",
      "type": "function"
    },
    {
      "constant": true,
      "inputs": [],
      "name": "last_completed_migration",
      "outputs": [
        {
          "name": "",
          "type": "uint256"
        }
      ],
      "payable": false,
      "stateMutability": "view",
      "type": "function"
    },
    {
      "constant": false,
      "inputs": [
        {
          "name": "_uniqueCode",
          "type": "uint256"
        },
        {
          "name": "_name",
          "type": "string"
        }
      ],
      "name": "createMilestone",
      "outputs": [],
      "payable": false,
      "stateMutability": "nonpayable",
      "type": "function"
    },
    {
      "constant": false,
      "inputs": [
        {
          "name": "_uniqueCode",
          "type": "uint256"
        },
        {
          "name": "_name",
          "type": "string"
        }
      ],
      "name": "addCodeProject",
      "outputs": [],
      "payable": false,
      "stateMutability": "nonpayable",
      "type": "function"
    },
    {
      "constant": false,
      "inputs": [
        {
          "name": "_uniqueCode",
          "type": "uint256"
        },
        {
          "name": "_name",
          "type": "string"
        }
      ],
      "name": "addVideo",
      "outputs": [],
      "payable": false,
      "stateMutability": "nonpayable",
      "type": "function"
    },
    {
      "constant": false,
      "inputs": [
        {
          "name": "_student",
          "type": "address"
        },
        {
          "name": "_courseCode",
          "type": "uint256"
        }
      ],
      "name": "EnrollNewCourse",
      "outputs": [],
      "payable": false,
      "stateMutability": "nonpayable",
      "type": "function"
    },
    {
      "constant": false,
      "inputs": [
        {
          "name": "_uniqueCode",
          "type": "uint256"
        },
        {
          "name": "_name",
          "type": "string"
        }
      ],
      "name": "addQuiz",
      "outputs": [],
      "payable": false,
      "stateMutability": "nonpayable",
      "type": "function"
    },
    {
      "constant": true,
      "inputs": [
        {
          "name": "_student",
          "type": "address"
        }
      ],
      "name": "getStudentRewards",
      "outputs": [
        {
          "name": "",
          "type": "uint256"
        }
      ],
      "payable": false,
      "stateMutability": "view",
      "type": "function"
    },
    {
      "constant": true,
      "inputs": [],
      "name": "owner",
      "outputs": [
        {
          "name": "",
          "type": "address"
        }
      ],
      "payable": false,
      "stateMutability": "view",
      "type": "function"
    },
    {
      "constant": false,
      "inputs": [
        {
          "name": "_student",
          "type": "address"
        },
        {
          "name": "_courseCode",
          "type": "uint256"
        },
        {
          "name": "_milestoneCode",
          "type": "uint256"
        },
        {
          "name": "_codeProjectCode",
          "type": "uint256"
        },
        {
          "name": "_result",
          "type": "uint8"
        }
      ],
      "name": "codeProjectCompleted",
      "outputs": [],
      "payable": false,
      "stateMutability": "nonpayable",
      "type": "function"
    },
    {
      "constant": false,
      "inputs": [
        {
          "name": "_student",
          "type": "address"
        },
        {
          "name": "_name",
          "type": "string"
        }
      ],
      "name": "RegisterNewStudent",
      "outputs": [],
      "payable": false,
      "stateMutability": "nonpayable",
      "type": "function"
    },
    {
      "constant": false,
      "inputs": [
        {
          "name": "_uniqueCode",
          "type": "uint256"
        },
        {
          "name": "_name",
          "type": "string"
        },
        {
          "name": "_reward",
          "type": "uint256"
        }
      ],
      "name": "createCourse",
      "outputs": [],
      "payable": false,
      "stateMutability": "nonpayable",
      "type": "function"
    },
    {
      "constant": false,
      "inputs": [
        {
          "name": "_MilestoneUniqueCode",
          "type": "uint256"
        },
        {
          "name": "_VideoUniqueCode",
          "type": "uint256"
        },
        {
          "name": "_share",
          "type": "uint8"
        }
      ],
      "name": "addVideoToMilestone",
      "outputs": [],
      "payable": false,
      "stateMutability": "nonpayable",
      "type": "function"
    },
    {
      "constant": false,
      "inputs": [
        {
          "name": "_MilestoneUniqueCode",
          "type": "uint256"
        },
        {
          "name": "_QuizUniqueCode",
          "type": "uint256"
        },
        {
          "name": "_share",
          "type": "uint8"
        }
      ],
      "name": "addQuizToMilestone",
      "outputs": [],
      "payable": false,
      "stateMutability": "nonpayable",
      "type": "function"
    },
    {
      "constant": false,
      "inputs": [
        {
          "name": "_student",
          "type": "address"
        },
        {
          "name": "_courseCode",
          "type": "uint256"
        },
        {
          "name": "_milestoneCode",
          "type": "uint256"
        },
        {
          "name": "_videoCode",
          "type": "uint256"
        }
      ],
      "name": "videoCompleted",
      "outputs": [],
      "payable": false,
      "stateMutability": "nonpayable",
      "type": "function"
    },
    {
      "constant": false,
      "inputs": [
        {
          "name": "completed",
          "type": "uint256"
        }
      ],
      "name": "setCompleted",
      "outputs": [],
      "payable": false,
      "stateMutability": "nonpayable",
      "type": "function"
    },
    {
      "inputs": [],
      "payable": false,
      "stateMutability": "nonpayable",
      "type": "constructor"
    },
    {
      "anonymous": false,
      "inputs": [
        {
          "indexed": true,
          "name": "from",
          "type": "address"
        },
        {
          "indexed": true,
          "name": "to",
          "type": "address"
        },
        {
          "indexed": false,
          "name": "value",
          "type": "uint256"
        }
      ],
      "name": "Transfer",
      "type": "event"
    },
    {
      "anonymous": false,
      "inputs": [
        {
          "indexed": true,
          "name": "owner",
          "type": "address"
        },
        {
          "indexed": true,
          "name": "spender",
          "type": "address"
        },
        {
          "indexed": false,
          "name": "value",
          "type": "uint256"
        }
      ],
      "name": "Approval",
      "type": "event"
    },
    {
      "constant": true,
      "inputs": [
        {
          "name": "_student",
          "type": "address"
        }
      ],
      "name": "balanceOf",
      "outputs": [
        {
          "name": "",
          "type": "uint256"
        }
      ],
      "payable": false,
      "stateMutability": "view",
      "type": "function"
    },
    {
      "constant": false,
      "inputs": [
        {
          "name": "_to",
          "type": "address"
        },
        {
          "name": "_value",
          "type": "uint256"
        }
      ],
      "name": "transfer",
      "outputs": [
        {
          "name": "",
          "type": "bool"
        }
      ],
      "payable": false,
      "stateMutability": "nonpayable",
      "type": "function"
    },
    {
      "constant": false,
      "inputs": [
        {
          "name": "_from",
          "type": "address"
        },
        {
          "name": "_to",
          "type": "address"
        },
        {
          "name": "_value",
          "type": "uint256"
        }
      ],
      "name": "transferFrom",
      "outputs": [
        {
          "name": "",
          "type": "bool"
        }
      ],
      "payable": false,
      "stateMutability": "nonpayable",
      "type": "function"
    },
    {
      "constant": false,
      "inputs": [
        {
          "name": "_spender",
          "type": "address"
        },
        {
          "name": "_value",
          "type": "uint256"
        }
      ],
      "name": "approve",
      "outputs": [
        {
          "name": "",
          "type": "bool"
        }
      ],
      "payable": false,
      "stateMutability": "nonpayable",
      "type": "function"
    },
    {
      "constant": true,
      "inputs": [
        {
          "name": "_owner",
          "type": "address"
        },
        {
          "name": "_spender",
          "type": "address"
        }
      ],
      "name": "allowance",
      "outputs": [
        {
          "name": "",
          "type": "uint256"
        }
      ],
      "payable": false,
      "stateMutability": "view",
      "type": "function"
    }
  ],
  "bytecode": "0x60806040523480156200001157600080fd5b50336000806101000a81548173ffffffffffffffffffffffffffffffffffffffff021916908373ffffffffffffffffffffffffffffffffffffffff16021790555060128081905550601254600a0a633b9aca00026011819055506040805190810160405280601281526020017f50726f6f66206f66204b6e6f776c656467650000000000000000000000000000815250600f9080519060200190620000b89291906200010d565b506040805190810160405280600381526020017f504f4b000000000000000000000000000000000000000000000000000000000081525060109080519060200190620001069291906200010d565b50620001bc565b828054600181600116156101000203166002900490600052602060002090601f016020900481019282601f106200015057805160ff191683800117855562000181565b8280016001018555821562000181579182015b828111156200018057825182559160200191906001019062000163565b5b50905062000190919062000194565b5090565b620001b991905b80821115620001b55760008160009055506001016200019b565b5090565b90565b6128e980620001cc6000396000f30060806040526004361061013e576000357c0100000000000000000000000000000000000000000000000000000000900463ffffffff1680630900f01014610143578063095ea7b31461018657806319c16ce8146101eb57806323b872dd1461022f57806333f2122c146102b457806343f9ed72146102f8578063445df0ac1461036657806344d0be641461039157806352c638181461040457806357c4699c14610477578063639c062e146104ea57806369f6af9e146105375780636dd9afa4146105aa57806370a08231146106015780638da5cb5b14610658578063a7c6885a146106af578063a9059cbb1461071d578063d3dc5c3a14610782578063d7237f021461080b578063dd62ed3e14610888578063e1a2d361146108ff578063f485d1b614610943578063f6a1eeb614610987578063fdacd576146109e8575b600080fd5b34801561014f57600080fd5b50610184600480360381019080803573ffffffffffffffffffffffffffffffffffffffff169060200190929190505050610a15565b005b34801561019257600080fd5b506101d1600480360381019080803573ffffffffffffffffffffffffffffffffffffffff16906020019092919080359060200190929190505050610afd565b604051808215151515815260200191505060405180910390f35b3480156101f757600080fd5b5061022d6004803603810190808035906020019092919080359060200190929190803560ff169060200190929190505050610bef565b005b34801561023b57600080fd5b5061029a600480360381019080803573ffffffffffffffffffffffffffffffffffffffff169060200190929190803573ffffffffffffffffffffffffffffffffffffffff16906020019092919080359060200190929190505050610ce8565b604051808215151515815260200191505060405180910390f35b3480156102c057600080fd5b506102f66004803603810190808035906020019092919080359060200190929190803560ff1690602001909291905050506110a7565b005b34801561030457600080fd5b50610364600480360381019080803573ffffffffffffffffffffffffffffffffffffffff169060200190929190803590602001909291908035906020019092919080359060200190929190803560ff169060200190929190505050611197565b005b34801561037257600080fd5b5061037b611430565b6040518082815260200191505060405180910390f35b34801561039d57600080fd5b5061040260048036038101908080359060200190929190803590602001908201803590602001908080601f0160208091040260200160405190810160405280939291908181526020018383808284378201915050505050509192919290505050611436565b005b34801561041057600080fd5b5061047560048036038101908080359060200190929190803590602001908201803590602001908080601f01602080910402602001604051908101604052809392919081815260200183838082843782019150505050505091929192905050506114d8565b005b34801561048357600080fd5b506104e860048036038101908080359060200190929190803590602001908201803590602001908080601f01602080910402602001604051908101604052809392919081815260200183838082843782019150505050505091929192905050506115aa565b005b3480156104f657600080fd5b50610535600480360381019080803573ffffffffffffffffffffffffffffffffffffffff1690602001909291908035906020019092919050505061167c565b005b34801561054357600080fd5b506105a860048036038101908080359060200190929190803590602001908201803590602001908080601f0160208091040260200160405190810160405280939291908181526020018383808284378201915050505050509192919290505050611778565b005b3480156105b657600080fd5b506105eb600480360381019080803573ffffffffffffffffffffffffffffffffffffffff16906020019092919050505061184a565b6040518082815260200191505060405180910390f35b34801561060d57600080fd5b50610642600480360381019080803573ffffffffffffffffffffffffffffffffffffffff169060200190929190505050611a2a565b6040518082815260200191505060405180910390f35b34801561066457600080fd5b5061066d611a73565b604051808273ffffffffffffffffffffffffffffffffffffffff1673ffffffffffffffffffffffffffffffffffffffff16815260200191505060405180910390f35b3480156106bb57600080fd5b5061071b600480360381019080803573ffffffffffffffffffffffffffffffffffffffff169060200190929190803590602001909291908035906020019092919080359060200190929190803560ff169060200190929190505050611a98565b005b34801561072957600080fd5b50610768600480360381019080803573ffffffffffffffffffffffffffffffffffffffff16906020019092919080359060200190929190505050611d31565b604051808215151515815260200191505060405180910390f35b34801561078e57600080fd5b50610809600480360381019080803573ffffffffffffffffffffffffffffffffffffffff169060200190929190803590602001908201803590602001908080601f0160208091040260200160405190810160405280939291908181526020018383808284378201915050505050509192919290505050611f55565b005b34801561081757600080fd5b5061088660048036038101908080359060200190929190803590602001908201803590602001908080601f016020809104026020016040519081016040528093929190818152602001838380828437820191505050505050919291929080359060200190929190505050612037565b005b34801561089457600080fd5b506108e9600480360381019080803573ffffffffffffffffffffffffffffffffffffffff169060200190929190803573ffffffffffffffffffffffffffffffffffffffff1690602001909291905050506120f7565b6040518082815260200191505060405180910390f35b34801561090b57600080fd5b506109416004803603810190808035906020019092919080359060200190929190803560ff16906020019092919050505061217e565b005b34801561094f57600080fd5b506109856004803603810190808035906020019092919080359060200190929190803560ff169060200190929190505050612277565b005b34801561099357600080fd5b506109e6600480360381019080803573ffffffffffffffffffffffffffffffffffffffff169060200190929190803590602001909291908035906020019092919080359060200190929190505050612370565b005b3480156109f457600080fd5b50610a13600480360381019080803590602001909291905050506125e0565b005b60008060009054906101000a900473ffffffffffffffffffffffffffffffffffffffff1673ffffffffffffffffffffffffffffffffffffffff163373ffffffffffffffffffffffffffffffffffffffff161415610af9578190508073ffffffffffffffffffffffffffffffffffffffff1663fdacd5766001546040518263ffffffff167c010000000000000000000000000000000000000000000000000000000002815260040180828152602001915050600060405180830381600087803b158015610ae057600080fd5b505af1158015610af4573d6000803e3d6000fd5b505050505b5050565b600081601460003373ffffffffffffffffffffffffffffffffffffffff1673ffffffffffffffffffffffffffffffffffffffff16815260200190815260200160002060008573ffffffffffffffffffffffffffffffffffffffff1673ffffffffffffffffffffffffffffffffffffffff168152602001908152602001600020819055508273ffffffffffffffffffffffffffffffffffffffff163373ffffffffffffffffffffffffffffffffffffffff167f8c5be1e5ebec7d5bd14f71427d1e84f3dd0314c0f7b2291e5b200ac8c7c3b925846040518082815260200191505060405180910390a36001905092915050565b6000806000809054906101000a900473ffffffffffffffffffffffffffffffffffffffff1673ffffffffffffffffffffffffffffffffffffffff163373ffffffffffffffffffffffffffffffffffffffff161415610ce15760096000868152602001908152602001600020549150600882815481101515610c6c57fe5b9060005260206000209060080201905080600301610c8985612640565b90806001815401808255809150509060018203906000526020600020016000909192909190915055508281600601600086815260200190815260200160002060006101000a81548160ff021916908360ff1602179055505b5050505050565b60008073ffffffffffffffffffffffffffffffffffffffff168373ffffffffffffffffffffffffffffffffffffffff1614151515610d2557600080fd5b600e60008573ffffffffffffffffffffffffffffffffffffffff1673ffffffffffffffffffffffffffffffffffffffff168152602001908152602001600020548211151515610d7357600080fd5b601460008573ffffffffffffffffffffffffffffffffffffffff1673ffffffffffffffffffffffffffffffffffffffff16815260200190815260200160002060003373ffffffffffffffffffffffffffffffffffffffff1673ffffffffffffffffffffffffffffffffffffffff168152602001908152602001600020548211151515610dfe57600080fd5b610e5082600e60008773ffffffffffffffffffffffffffffffffffffffff1673ffffffffffffffffffffffffffffffffffffffff1681526020019081526020016000205461265d90919063ffffffff16565b600e60008673ffffffffffffffffffffffffffffffffffffffff1673ffffffffffffffffffffffffffffffffffffffff16815260200190815260200160002081905550610ee582600e60008673ffffffffffffffffffffffffffffffffffffffff1673ffffffffffffffffffffffffffffffffffffffff1681526020019081526020016000205461267690919063ffffffff16565b600e60008573ffffffffffffffffffffffffffffffffffffffff1673ffffffffffffffffffffffffffffffffffffffff16815260200190815260200160002081905550610fb782601460008773ffffffffffffffffffffffffffffffffffffffff1673ffffffffffffffffffffffffffffffffffffffff16815260200190815260200160002060003373ffffffffffffffffffffffffffffffffffffffff1673ffffffffffffffffffffffffffffffffffffffff1681526020019081526020016000205461265d90919063ffffffff16565b601460008673ffffffffffffffffffffffffffffffffffffffff1673ffffffffffffffffffffffffffffffffffffffff16815260200190815260200160002060003373ffffffffffffffffffffffffffffffffffffffff1673ffffffffffffffffffffffffffffffffffffffff168152602001908152602001600020819055508273ffffffffffffffffffffffffffffffffffffffff168473ffffffffffffffffffffffffffffffffffffffff167fddf252ad1be2c89b69c2b068fc378daa952ba7f163c4a11628f55a4df523b3ef846040518082815260200191505060405180910390a3600190509392505050565b6000806000809054906101000a900473ffffffffffffffffffffffffffffffffffffffff1673ffffffffffffffffffffffffffffffffffffffff163373ffffffffffffffffffffffffffffffffffffffff16141561119057600b6000868152602001908152602001600020549150600a8281548110151561112457fe5b906000526020600020906005020190508060020161114185612692565b90806001815401808255809150509060018203906000526020600020016000909192909190915055508260ff1681600301600061117d87612692565b8152602001908152602001600020819055505b5050505050565b6000806000806000806000809054906101000a900473ffffffffffffffffffffffffffffffffffffffff1673ffffffffffffffffffffffffffffffffffffffff163373ffffffffffffffffffffffffffffffffffffffff16141561142357600d60008c73ffffffffffffffffffffffffffffffffffffffff1673ffffffffffffffffffffffffffffffffffffffff1681526020019081526020016000205495506112408a6126af565b945061124b89612692565b9350611256886126cc565b925061126284846126e9565b9150600c8681548110151561127357fe5b90600052602060002090600d0201905080600a01600084815260200190815260200160002060009054906101000a900460ff161515156112b257600080fd5b600181600a01600085815260200190815260200160002060006101000a81548160ff0219169083151502179055508181600301600086815260200190815260200160002060008282829054906101000a900460ff160192506101000a81548160ff021916908360ff160217905550606481600301600086815260200190815260200160002060009054906101000a900460ff1660ff1614156113c657600181600401600086815260200190815260200160002060006101000a81548160ff0219169083151502179055506113c46113b160646113a38a60ff166113958a8a612732565b61276e90919063ffffffff16565b6127a690919063ffffffff16565b82600c015461267690919063ffffffff16565b505b6114216113d38686612732565b600e60008e73ffffffffffffffffffffffffffffffffffffffff1673ffffffffffffffffffffffffffffffffffffffff1681526020019081526020016000205461267690919063ffffffff16565b505b5050505050505050505050565b60015481565b60008060009054906101000a900473ffffffffffffffffffffffffffffffffffffffff1673ffffffffffffffffffffffffffffffffffffffff163373ffffffffffffffffffffffffffffffffffffffff1614156114d357600880805490508154811015156114a057fe5b90600052602060002090600802019050828160000181905550818160010190805190602001906114d19291906127d9565b505b505050565b60008060009054906101000a900473ffffffffffffffffffffffffffffffffffffffff1673ffffffffffffffffffffffffffffffffffffffff163373ffffffffffffffffffffffffffffffffffffffff1614156115a5576003808054905081548110151561154257fe5b90600052602060002090600202019050828160000181905550818160010190805190602001906115739291906127d9565b5061158d600160038054905061265d90919063ffffffff16565b60066000858152602001908152602001600020819055505b505050565b60008060009054906101000a900473ffffffffffffffffffffffffffffffffffffffff1673ffffffffffffffffffffffffffffffffffffffff163373ffffffffffffffffffffffffffffffffffffffff161415611677576002808054905081548110151561161457fe5b90600052602060002090600202019050828160000181905550818160010190805190602001906116459291906127d9565b5061165f600160028054905061265d90919063ffffffff16565b60056000858152602001908152602001600020819055505b505050565b60008060008060009054906101000a900473ffffffffffffffffffffffffffffffffffffffff1673ffffffffffffffffffffffffffffffffffffffff163373ffffffffffffffffffffffffffffffffffffffff161415611771576116df846126af565b9250600d60008673ffffffffffffffffffffffffffffffffffffffff1673ffffffffffffffffffffffffffffffffffffffff168152602001908152602001600020549150600c8281548110151561173257fe5b90600052602060002090600d02019050806002018390806001815401808255809150509060018203906000526020600020016000909192909190915055505b5050505050565b60008060009054906101000a900473ffffffffffffffffffffffffffffffffffffffff1673ffffffffffffffffffffffffffffffffffffffff163373ffffffffffffffffffffffffffffffffffffffff16141561184557600480805490508154811015156117e257fe5b90600052602060002090600202019050828160000181905550818160010190805190602001906118139291906127d9565b5061182d600160048054905061265d90919063ffffffff16565b60076000858152602001908152602001600020819055505b505050565b600080611855612859565b600d60008573ffffffffffffffffffffffffffffffffffffffff1673ffffffffffffffffffffffffffffffffffffffff168152602001908152602001600020549150600c828154811015156118a657fe5b90600052602060002090600d0201608060405190810160405290816000820160009054906101000a900473ffffffffffffffffffffffffffffffffffffffff1673ffffffffffffffffffffffffffffffffffffffff1673ffffffffffffffffffffffffffffffffffffffff168152602001600182018054600181600116156101000203166002900480601f0160208091040260200160405190810160405280929190818152602001828054600181600116156101000203166002900480156119af5780601f10611984576101008083540402835291602001916119af565b820191906000526020600020905b81548152906001019060200180831161199257829003601f168201915b5050505050815260200160028201805480602002602001604051908101604052809291908181526020018280548015611a0757602002820191906000526020600020905b8154815260200190600101908083116119f3575b50505050508152602001600c820154815250509050806060015192505050919050565b6000600e60008373ffffffffffffffffffffffffffffffffffffffff1673ffffffffffffffffffffffffffffffffffffffff168152602001908152602001600020549050919050565b6000809054906101000a900473ffffffffffffffffffffffffffffffffffffffff1681565b6000806000806000806000809054906101000a900473ffffffffffffffffffffffffffffffffffffffff1673ffffffffffffffffffffffffffffffffffffffff163373ffffffffffffffffffffffffffffffffffffffff161415611d2457600d60008c73ffffffffffffffffffffffffffffffffffffffff1673ffffffffffffffffffffffffffffffffffffffff168152602001908152602001600020549550611b418a6126af565b9450611b4c89612692565b9350611b57886126cc565b9250611b6384846126e9565b9150600c86815481101515611b7457fe5b90600052602060002090600d0201905080600801600084815260200190815260200160002060009054906101000a900460ff16151515611bb357600080fd5b600181600801600085815260200190815260200160002060006101000a81548160ff0219169083151502179055508181600301600086815260200190815260200160002060008282829054906101000a900460ff160192506101000a81548160ff021916908360ff160217905550606481600301600086815260200190815260200160002060009054906101000a900460ff1660ff161415611cc757600181600401600086815260200190815260200160002060006101000a81548160ff021916908315150217905550611cc5611cb26064611ca48a60ff16611c968a8a612732565b61276e90919063ffffffff16565b6127a690919063ffffffff16565b82600c015461267690919063ffffffff16565b505b611d22611cd48686612732565b600e60008e73ffffffffffffffffffffffffffffffffffffffff1673ffffffffffffffffffffffffffffffffffffffff1681526020019081526020016000205461267690919063ffffffff16565b505b5050505050505050505050565b60008073ffffffffffffffffffffffffffffffffffffffff168373ffffffffffffffffffffffffffffffffffffffff1614151515611d6e57600080fd5b600e60003373ffffffffffffffffffffffffffffffffffffffff1673ffffffffffffffffffffffffffffffffffffffff168152602001908152602001600020548211151515611dbc57600080fd5b611e0e82600e60003373ffffffffffffffffffffffffffffffffffffffff1673ffffffffffffffffffffffffffffffffffffffff1681526020019081526020016000205461265d90919063ffffffff16565b600e60003373ffffffffffffffffffffffffffffffffffffffff1673ffffffffffffffffffffffffffffffffffffffff16815260200190815260200160002081905550611ea382600e60008673ffffffffffffffffffffffffffffffffffffffff1673ffffffffffffffffffffffffffffffffffffffff1681526020019081526020016000205461267690919063ffffffff16565b600e60008573ffffffffffffffffffffffffffffffffffffffff1673ffffffffffffffffffffffffffffffffffffffff168152602001908152602001600020819055508273ffffffffffffffffffffffffffffffffffffffff163373ffffffffffffffffffffffffffffffffffffffff167fddf252ad1be2c89b69c2b068fc378daa952ba7f163c4a11628f55a4df523b3ef846040518082815260200191505060405180910390a36001905092915050565b6000806000809054906101000a900473ffffffffffffffffffffffffffffffffffffffff1673ffffffffffffffffffffffffffffffffffffffff163373ffffffffffffffffffffffffffffffffffffffff16141561203157600c805490509150600c82815481101515611fc457fe5b90600052602060002090600d02019050838160000160006101000a81548173ffffffffffffffffffffffffffffffffffffffff021916908373ffffffffffffffffffffffffffffffffffffffff1602179055508281600101908051906020019061202f9291906127d9565b505b50505050565b6000806000809054906101000a900473ffffffffffffffffffffffffffffffffffffffff1673ffffffffffffffffffffffffffffffffffffffff163373ffffffffffffffffffffffffffffffffffffffff1614156120f057600b6000868152602001908152602001600020549150600a828154811015156120b457fe5b90600052602060002090600502019050848160000181905550838160010190805190602001906120e59291906127d9565b508281600401819055505b5050505050565b6000601460008473ffffffffffffffffffffffffffffffffffffffff1673ffffffffffffffffffffffffffffffffffffffff16815260200190815260200160002060008373ffffffffffffffffffffffffffffffffffffffff1673ffffffffffffffffffffffffffffffffffffffff16815260200190815260200160002054905092915050565b6000806000809054906101000a900473ffffffffffffffffffffffffffffffffffffffff1673ffffffffffffffffffffffffffffffffffffffff163373ffffffffffffffffffffffffffffffffffffffff16141561227057600960008681526020019081526020016000205491506008828154811015156121fb57fe5b9060005260206000209060080201905080600201612218856126cc565b90806001815401808255809150509060018203906000526020600020016000909192909190915055508281600501600086815260200190815260200160002060006101000a81548160ff021916908360ff1602179055505b5050505050565b6000806000809054906101000a900473ffffffffffffffffffffffffffffffffffffffff1673ffffffffffffffffffffffffffffffffffffffff163373ffffffffffffffffffffffffffffffffffffffff16141561236957600960008681526020019081526020016000205491506008828154811015156122f457fe5b9060005260206000209060080201905080600401612311856127bc565b90806001815401808255809150509060018203906000526020600020016000909192909190915055508281600701600086815260200190815260200160002060006101000a81548160ff021916908360ff1602179055505b5050505050565b6000806000806000806000809054906101000a900473ffffffffffffffffffffffffffffffffffffffff1673ffffffffffffffffffffffffffffffffffffffff163373ffffffffffffffffffffffffffffffffffffffff1614156125d457600d60008b73ffffffffffffffffffffffffffffffffffffffff1673ffffffffffffffffffffffffffffffffffffffff168152602001908152602001600020549550612419896126af565b945061242488612692565b935061242f876126cc565b925061243b84846126e9565b9150600c8681548110151561244c57fe5b90600052602060002090600d0201905080600701600084815260200190815260200160002060009054906101000a900460ff1615151561248b57600080fd5b600181600701600085815260200190815260200160002060006101000a81548160ff0219169083151502179055508181600301600086815260200190815260200160002060008282829054906101000a900460ff160192506101000a81548160ff021916908360ff160217905550606481600301600086815260200190815260200160002060009054906101000a900460ff1660ff1614156125d357600181600401600086815260200190815260200160002060006101000a81548160ff0219169083151502179055506125756125628686612732565b82600c015461267690919063ffffffff16565b506125d16125838686612732565b600e60008d73ffffffffffffffffffffffffffffffffffffffff1673ffffffffffffffffffffffffffffffffffffffff1681526020019081526020016000205461267690919063ffffffff16565b505b5b50505050505050505050565b6000809054906101000a900473ffffffffffffffffffffffffffffffffffffffff1673ffffffffffffffffffffffffffffffffffffffff163373ffffffffffffffffffffffffffffffffffffffff16141561263d57806001819055505b50565b600060066000838152602001908152602001600020549050919050565b600082821115151561266b57fe5b818303905092915050565b6000818301905082811015151561268957fe5b80905092915050565b600060096000838152602001908152602001600020549050919050565b6000600b6000838152602001908152602001600020549050919050565b600060056000838152602001908152602001600020549050919050565b60006008828154811015156126fa57fe5b9060005260206000209060080201600501600084815260200190815260200160002060009054906101000a900460ff16905092915050565b6000600a8381548110151561274357fe5b9060005260206000209060050201600301600083815260200190815260200160002054905092915050565b60008083141561278157600090506127a0565b818302905081838281151561279257fe5b0414151561279c57fe5b8090505b92915050565b600081838115156127b357fe5b04905092915050565b600060076000838152602001908152602001600020549050919050565b828054600181600116156101000203166002900490600052602060002090601f016020900481019282601f1061281a57805160ff1916838001178555612848565b82800160010185558215612848579182015b8281111561284757825182559160200191906001019061282c565b5b5090506128559190612898565b5090565b608060405190810160405280600073ffffffffffffffffffffffffffffffffffffffff1681526020016060815260200160608152602001600081525090565b6128ba91905b808211156128b657600081600090555060010161289e565b5090565b905600a165627a7a723058209f3cd4fd8288e9ac50dea9235e9c0193283db1300b398977b7366fdc256993ae0029",
  "source": "pragma solidity ^0.4.23;\r\n\r\nimport \"./Student.sol\";\r\n\r\ncontract POKToken is Student {\r\n    string name;\r\n    string symbol;\r\n    uint256 totalSupplay;\r\n    uint256 decimals;\r\n    mapping(address => uint256) balance;\r\n    mapping (address => mapping (address => uint256)) internal allowed;\r\n\r\n    event Transfer(address indexed from, address indexed to, uint256 value);\r\n    event Approval(address indexed owner, address indexed spender, uint256 value);\r\n\r\n    constructor() public {\r\n        decimals = 18;\r\n        totalSupplay = 1e9 * 10 ** decimals;\r\n        name = \"Proof of Knowledge\";\r\n        symbol = \"POK\";\r\n    }\r\n\r\n    function balanceOf(address _student) public view returns (uint256) {\r\n        return balances[_student];\r\n    }\r\n\r\n    function transfer(address _to, uint256 _value) public returns (bool) {\r\n        require(_to != address(0));\r\n        require(_value <= balances[msg.sender]);\r\n\r\n        balances[msg.sender] = balances[msg.sender].sub(_value);\r\n        balances[_to] = balances[_to].add(_value);\r\n        emit Transfer(msg.sender, _to, _value);\r\n        return true;\r\n    }\r\n\r\n    function transferFrom(address _from, address _to, uint256 _value) public returns (bool) {\r\n        require(_to != address(0));\r\n        require(_value <= balances[_from]);\r\n        require(_value <= allowed[_from][msg.sender]);\r\n\r\n        balances[_from] = balances[_from].sub(_value);\r\n        balances[_to] = balances[_to].add(_value);\r\n        allowed[_from][msg.sender] = allowed[_from][msg.sender].sub(_value);\r\n        emit Transfer(_from, _to, _value);\r\n        return true;\r\n    }\r\n\r\n    function approve(address _spender, uint256 _value) public returns (bool) {\r\n        allowed[msg.sender][_spender] = _value;\r\n        emit Approval(msg.sender, _spender, _value);\r\n        return true;\r\n    }\r\n\r\n    function allowance(address _owner, address _spender) public view returns (uint256) {\r\n        return allowed[_owner][_spender];\r\n    }\r\n\r\n}",
  "sourcePath": "G:\\Root\\Blockchain\\Proof of Knowledge\\contracts\\POK.sol",
  "compiler": {
    "name": "solc",
    "version": "0.4.23+commit.124ca40d.Emscripten.clang"
  },
  "schemaVersion": "2.0.0",
  "updatedAt": "2018-05-28T11:00:47.580Z"
}