{
  "contractName": "POKToken",
  "abi": [
    {
      "constant": false,
      "inputs": [
        {
          "name": "new_address",
          "type": "address"
        }
      ],
      "name": "upgrade",
      "outputs": [],
      "payable": false,
      "stateMutability": "nonpayable",
      "type": "function"
    },
    {
      "constant": false,
      "inputs": [
        {
          "name": "_student",
          "type": "address"
        },
        {
          "name": "_courseCode",
          "type": "uint256"
        },
        {
          "name": "_milestoneCode",
          "type": "uint256"
        },
        {
          "name": "_codeProjectCode",
          "type": "uint256"
        }
      ],
      "name": "codeProjectCompleted",
      "outputs": [],
      "payable": false,
      "stateMutability": "nonpayable",
      "type": "function"
    },
    {
      "constant": false,
      "inputs": [
        {
          "name": "_MilestoneUniqueCode",
          "type": "uint256"
        },
        {
          "name": "_CodeProjectUniqueCode",
          "type": "uint256"
        },
        {
          "name": "_share",
          "type": "uint8"
        }
      ],
      "name": "addCodeProjectToMilestone",
      "outputs": [],
      "payable": false,
      "stateMutability": "nonpayable",
      "type": "function"
    },
    {
      "constant": false,
      "inputs": [
        {
          "name": "_courseCode",
          "type": "uint256"
        },
        {
          "name": "_milestoneCode",
          "type": "uint256"
        },
        {
          "name": "_reward",
          "type": "uint8"
        }
      ],
      "name": "addMilestoneToCourse",
      "outputs": [],
      "payable": false,
      "stateMutability": "nonpayable",
      "type": "function"
    },
    {
      "constant": true,
      "inputs": [],
      "name": "last_completed_migration",
      "outputs": [
        {
          "name": "",
          "type": "uint256"
        }
      ],
      "payable": false,
      "stateMutability": "view",
      "type": "function"
    },
    {
      "constant": false,
      "inputs": [
        {
          "name": "_uniqueCode",
          "type": "uint256"
        },
        {
          "name": "_name",
          "type": "string"
        }
      ],
      "name": "createMilestone",
      "outputs": [],
      "payable": false,
      "stateMutability": "nonpayable",
      "type": "function"
    },
    {
      "constant": false,
      "inputs": [
        {
          "name": "_uniqueCode",
          "type": "uint256"
        },
        {
          "name": "_name",
          "type": "string"
        }
      ],
      "name": "addCodeProject",
      "outputs": [],
      "payable": false,
      "stateMutability": "nonpayable",
      "type": "function"
    },
    {
      "constant": false,
      "inputs": [
        {
          "name": "_uniqueCode",
          "type": "uint256"
        },
        {
          "name": "_name",
          "type": "string"
        }
      ],
      "name": "addVideo",
      "outputs": [],
      "payable": false,
      "stateMutability": "nonpayable",
      "type": "function"
    },
    {
      "constant": false,
      "inputs": [
        {
          "name": "_student",
          "type": "address"
        },
        {
          "name": "_courseCode",
          "type": "uint256"
        },
        {
          "name": "_milestoneCode",
          "type": "uint256"
        },
        {
          "name": "_quizCode",
          "type": "uint256"
        }
      ],
      "name": "quizCompleted",
      "outputs": [],
      "payable": false,
      "stateMutability": "nonpayable",
      "type": "function"
    },
    {
      "constant": false,
      "inputs": [
        {
          "name": "_student",
          "type": "address"
        },
        {
          "name": "_courseCode",
          "type": "uint256"
        }
      ],
      "name": "EnrollNewCourse",
      "outputs": [],
      "payable": false,
      "stateMutability": "nonpayable",
      "type": "function"
    },
    {
      "constant": false,
      "inputs": [
        {
          "name": "_uniqueCode",
          "type": "uint256"
        },
        {
          "name": "_name",
          "type": "string"
        }
      ],
      "name": "addQuiz",
      "outputs": [],
      "payable": false,
      "stateMutability": "nonpayable",
      "type": "function"
    },
    {
      "constant": true,
      "inputs": [
        {
          "name": "_student",
          "type": "address"
        }
      ],
      "name": "getStudentRewards",
      "outputs": [
        {
          "name": "",
          "type": "uint256"
        }
      ],
      "payable": false,
      "stateMutability": "view",
      "type": "function"
    },
    {
      "constant": true,
      "inputs": [],
      "name": "owner",
      "outputs": [
        {
          "name": "",
          "type": "address"
        }
      ],
      "payable": false,
      "stateMutability": "view",
      "type": "function"
    },
    {
      "constant": false,
      "inputs": [
        {
          "name": "_student",
          "type": "address"
        },
        {
          "name": "_name",
          "type": "string"
        }
      ],
      "name": "RegisterNewStudent",
      "outputs": [],
      "payable": false,
      "stateMutability": "nonpayable",
      "type": "function"
    },
    {
      "constant": false,
      "inputs": [
        {
          "name": "_uniqueCode",
          "type": "uint256"
        },
        {
          "name": "_name",
          "type": "string"
        },
        {
          "name": "_reward",
          "type": "uint256"
        }
      ],
      "name": "createCourse",
      "outputs": [],
      "payable": false,
      "stateMutability": "nonpayable",
      "type": "function"
    },
    {
      "constant": false,
      "inputs": [
        {
          "name": "_MilestoneUniqueCode",
          "type": "uint256"
        },
        {
          "name": "_VideoUniqueCode",
          "type": "uint256"
        },
        {
          "name": "_share",
          "type": "uint8"
        }
      ],
      "name": "addVideoToMilestone",
      "outputs": [],
      "payable": false,
      "stateMutability": "nonpayable",
      "type": "function"
    },
    {
      "constant": false,
      "inputs": [
        {
          "name": "_MilestoneUniqueCode",
          "type": "uint256"
        },
        {
          "name": "_QuizUniqueCode",
          "type": "uint256"
        },
        {
          "name": "_share",
          "type": "uint8"
        }
      ],
      "name": "addQuizToMilestone",
      "outputs": [],
      "payable": false,
      "stateMutability": "nonpayable",
      "type": "function"
    },
    {
      "constant": false,
      "inputs": [
        {
          "name": "_student",
          "type": "address"
        },
        {
          "name": "_courseCode",
          "type": "uint256"
        },
        {
          "name": "_milestoneCode",
          "type": "uint256"
        },
        {
          "name": "_videoCode",
          "type": "uint256"
        }
      ],
      "name": "videoCompleted",
      "outputs": [],
      "payable": false,
      "stateMutability": "nonpayable",
      "type": "function"
    },
    {
      "constant": false,
      "inputs": [
        {
          "name": "completed",
          "type": "uint256"
        }
      ],
      "name": "setCompleted",
      "outputs": [],
      "payable": false,
      "stateMutability": "nonpayable",
      "type": "function"
    },
    {
      "inputs": [],
      "payable": false,
      "stateMutability": "nonpayable",
      "type": "constructor"
    },
    {
      "anonymous": false,
      "inputs": [
        {
          "indexed": true,
          "name": "from",
          "type": "address"
        },
        {
          "indexed": true,
          "name": "to",
          "type": "address"
        },
        {
          "indexed": false,
          "name": "value",
          "type": "uint256"
        }
      ],
      "name": "Transfer",
      "type": "event"
    },
    {
      "anonymous": false,
      "inputs": [
        {
          "indexed": true,
          "name": "owner",
          "type": "address"
        },
        {
          "indexed": true,
          "name": "spender",
          "type": "address"
        },
        {
          "indexed": false,
          "name": "value",
          "type": "uint256"
        }
      ],
      "name": "Approval",
      "type": "event"
    },
    {
      "constant": true,
      "inputs": [
        {
          "name": "_student",
          "type": "address"
        }
      ],
      "name": "balanceOf",
      "outputs": [
        {
          "name": "",
          "type": "uint256"
        }
      ],
      "payable": false,
      "stateMutability": "view",
      "type": "function"
    },
    {
      "constant": false,
      "inputs": [
        {
          "name": "_to",
          "type": "address"
        },
        {
          "name": "_value",
          "type": "uint256"
        }
      ],
      "name": "transfer",
      "outputs": [
        {
          "name": "",
          "type": "bool"
        }
      ],
      "payable": false,
      "stateMutability": "nonpayable",
      "type": "function"
    },
    {
      "constant": false,
      "inputs": [
        {
          "name": "_from",
          "type": "address"
        },
        {
          "name": "_to",
          "type": "address"
        },
        {
          "name": "_value",
          "type": "uint256"
        }
      ],
      "name": "transferFrom",
      "outputs": [
        {
          "name": "",
          "type": "bool"
        }
      ],
      "payable": false,
      "stateMutability": "nonpayable",
      "type": "function"
    },
    {
      "constant": false,
      "inputs": [
        {
          "name": "_spender",
          "type": "address"
        },
        {
          "name": "_value",
          "type": "uint256"
        }
      ],
      "name": "approve",
      "outputs": [
        {
          "name": "",
          "type": "bool"
        }
      ],
      "payable": false,
      "stateMutability": "nonpayable",
      "type": "function"
    },
    {
      "constant": true,
      "inputs": [
        {
          "name": "_owner",
          "type": "address"
        },
        {
          "name": "_spender",
          "type": "address"
        }
      ],
      "name": "allowance",
      "outputs": [
        {
          "name": "",
          "type": "uint256"
        }
      ],
      "payable": false,
      "stateMutability": "view",
      "type": "function"
    }
  ],
  "bytecode": "0x60806040523480156200001157600080fd5b50336000806101000a81548173ffffffffffffffffffffffffffffffffffffffff021916908373ffffffffffffffffffffffffffffffffffffffff16021790555060128081905550601254600a0a633b9aca00026011819055506040805190810160405280601281526020017f50726f6f66206f66204b6e6f776c656467650000000000000000000000000000815250600f9080519060200190620000b89291906200010d565b506040805190810160405280600381526020017f504f4b000000000000000000000000000000000000000000000000000000000081525060109080519060200190620001069291906200010d565b50620001bc565b828054600181600116156101000203166002900490600052602060002090601f016020900481019282601f106200015057805160ff191683800117855562000181565b8280016001018555821562000181579182015b828111156200018057825182559160200191906001019062000163565b5b50905062000190919062000194565b5090565b620001b991905b80821115620001b55760008160009055506001016200019b565b5090565b90565b61282f80620001cc6000396000f30060806040526004361061013e576000357c0100000000000000000000000000000000000000000000000000000000900463ffffffff1680630900f01014610143578063095ea7b31461018657806315286258146101eb57806319c16ce81461024c57806323b872dd1461029057806333f2122c14610315578063445df0ac1461035957806344d0be641461038457806352c63818146103f757806357c4699c1461046a578063606baf01146104dd578063639c062e1461053e57806369f6af9e1461058b5780636dd9afa4146105fe57806370a08231146106555780638da5cb5b146106ac578063a9059cbb14610703578063d3dc5c3a14610768578063d7237f02146107f1578063dd62ed3e1461086e578063e1a2d361146108e5578063f485d1b614610929578063f6a1eeb61461096d578063fdacd576146109ce575b600080fd5b34801561014f57600080fd5b50610184600480360381019080803573ffffffffffffffffffffffffffffffffffffffff1690602001909291905050506109fb565b005b34801561019257600080fd5b506101d1600480360381019080803573ffffffffffffffffffffffffffffffffffffffff16906020019092919080359060200190929190505050610ae3565b604051808215151515815260200191505060405180910390f35b3480156101f757600080fd5b5061024a600480360381019080803573ffffffffffffffffffffffffffffffffffffffff169060200190929190803590602001909291908035906020019092919080359060200190929190505050610bd5565b005b34801561025857600080fd5b5061028e6004803603810190808035906020019092919080359060200190929190803560ff169060200190929190505050610e45565b005b34801561029c57600080fd5b506102fb600480360381019080803573ffffffffffffffffffffffffffffffffffffffff169060200190929190803573ffffffffffffffffffffffffffffffffffffffff16906020019092919080359060200190929190505050610f3e565b604051808215151515815260200191505060405180910390f35b34801561032157600080fd5b506103576004803603810190808035906020019092919080359060200190929190803560ff1690602001909291905050506112fd565b005b34801561036557600080fd5b5061036e6113ed565b6040518082815260200191505060405180910390f35b34801561039057600080fd5b506103f560048036038101908080359060200190929190803590602001908201803590602001908080601f01602080910402602001604051908101604052809392919081815260200183838082843782019150505050505091929192905050506113f3565b005b34801561040357600080fd5b5061046860048036038101908080359060200190929190803590602001908201803590602001908080601f0160208091040260200160405190810160405280939291908181526020018383808284378201915050505050509192919290505050611495565b005b34801561047657600080fd5b506104db60048036038101908080359060200190929190803590602001908201803590602001908080601f0160208091040260200160405190810160405280939291908181526020018383808284378201915050505050509192919290505050611567565b005b3480156104e957600080fd5b5061053c600480360381019080803573ffffffffffffffffffffffffffffffffffffffff169060200190929190803590602001909291908035906020019092919080359060200190929190505050611639565b005b34801561054a57600080fd5b50610589600480360381019080803573ffffffffffffffffffffffffffffffffffffffff169060200190929190803590602001909291905050506118a9565b005b34801561059757600080fd5b506105fc60048036038101908080359060200190929190803590602001908201803590602001908080601f01602080910402602001604051908101604052809392919081815260200183838082843782019150505050505091929192905050506119a5565b005b34801561060a57600080fd5b5061063f600480360381019080803573ffffffffffffffffffffffffffffffffffffffff169060200190929190505050611a77565b6040518082815260200191505060405180910390f35b34801561066157600080fd5b50610696600480360381019080803573ffffffffffffffffffffffffffffffffffffffff169060200190929190505050611c57565b6040518082815260200191505060405180910390f35b3480156106b857600080fd5b506106c1611ca0565b604051808273ffffffffffffffffffffffffffffffffffffffff1673ffffffffffffffffffffffffffffffffffffffff16815260200191505060405180910390f35b34801561070f57600080fd5b5061074e600480360381019080803573ffffffffffffffffffffffffffffffffffffffff16906020019092919080359060200190929190505050611cc5565b604051808215151515815260200191505060405180910390f35b34801561077457600080fd5b506107ef600480360381019080803573ffffffffffffffffffffffffffffffffffffffff169060200190929190803590602001908201803590602001908080601f0160208091040260200160405190810160405280939291908181526020018383808284378201915050505050509192919290505050611ee9565b005b3480156107fd57600080fd5b5061086c60048036038101908080359060200190929190803590602001908201803590602001908080601f016020809104026020016040519081016040528093929190818152602001838380828437820191505050505050919291929080359060200190929190505050611fcb565b005b34801561087a57600080fd5b506108cf600480360381019080803573ffffffffffffffffffffffffffffffffffffffff169060200190929190803573ffffffffffffffffffffffffffffffffffffffff16906020019092919050505061208b565b6040518082815260200191505060405180910390f35b3480156108f157600080fd5b506109276004803603810190808035906020019092919080359060200190929190803560ff169060200190929190505050612112565b005b34801561093557600080fd5b5061096b6004803603810190808035906020019092919080359060200190929190803560ff16906020019092919050505061220b565b005b34801561097957600080fd5b506109cc600480360381019080803573ffffffffffffffffffffffffffffffffffffffff169060200190929190803590602001909291908035906020019092919080359060200190929190505050612304565b005b3480156109da57600080fd5b506109f960048036038101908080359060200190929190505050612574565b005b60008060009054906101000a900473ffffffffffffffffffffffffffffffffffffffff1673ffffffffffffffffffffffffffffffffffffffff163373ffffffffffffffffffffffffffffffffffffffff161415610adf578190508073ffffffffffffffffffffffffffffffffffffffff1663fdacd5766001546040518263ffffffff167c010000000000000000000000000000000000000000000000000000000002815260040180828152602001915050600060405180830381600087803b158015610ac657600080fd5b505af1158015610ada573d6000803e3d6000fd5b505050505b5050565b600081601460003373ffffffffffffffffffffffffffffffffffffffff1673ffffffffffffffffffffffffffffffffffffffff16815260200190815260200160002060008573ffffffffffffffffffffffffffffffffffffffff1673ffffffffffffffffffffffffffffffffffffffff168152602001908152602001600020819055508273ffffffffffffffffffffffffffffffffffffffff163373ffffffffffffffffffffffffffffffffffffffff167f8c5be1e5ebec7d5bd14f71427d1e84f3dd0314c0f7b2291e5b200ac8c7c3b925846040518082815260200191505060405180910390a36001905092915050565b6000806000806000806000809054906101000a900473ffffffffffffffffffffffffffffffffffffffff1673ffffffffffffffffffffffffffffffffffffffff163373ffffffffffffffffffffffffffffffffffffffff161415610e3957600d60008b73ffffffffffffffffffffffffffffffffffffffff1673ffffffffffffffffffffffffffffffffffffffff168152602001908152602001600020549550610c7e896125d4565b9450610c89886125f1565b9350610c948761260e565b9250610ca0848461262b565b9150600c86815481101515610cb157fe5b90600052602060002090600b0201905080600801600084815260200190815260200160002060009054906101000a900460ff16151515610cf057600080fd5b600181600801600085815260200190815260200160002060006101000a81548160ff0219169083151502179055508181600301600086815260200190815260200160002060008282829054906101000a900460ff160192506101000a81548160ff021916908360ff160217905550606481600301600086815260200190815260200160002060009054906101000a900460ff1660ff161415610ddc57600181600401600086815260200190815260200160002060006101000a81548160ff021916908315150217905550610dda610dc78686612674565b82600a01546126b090919063ffffffff16565b505b610e37610de98686612674565b600e60008d73ffffffffffffffffffffffffffffffffffffffff1673ffffffffffffffffffffffffffffffffffffffff168152602001908152602001600020546126b090919063ffffffff16565b505b50505050505050505050565b6000806000809054906101000a900473ffffffffffffffffffffffffffffffffffffffff1673ffffffffffffffffffffffffffffffffffffffff163373ffffffffffffffffffffffffffffffffffffffff161415610f375760096000868152602001908152602001600020549150600882815481101515610ec257fe5b9060005260206000209060080201905080600301610edf856126cc565b90806001815401808255809150509060018203906000526020600020016000909192909190915055508281600601600086815260200190815260200160002060006101000a81548160ff021916908360ff1602179055505b5050505050565b60008073ffffffffffffffffffffffffffffffffffffffff168373ffffffffffffffffffffffffffffffffffffffff1614151515610f7b57600080fd5b600e60008573ffffffffffffffffffffffffffffffffffffffff1673ffffffffffffffffffffffffffffffffffffffff168152602001908152602001600020548211151515610fc957600080fd5b601460008573ffffffffffffffffffffffffffffffffffffffff1673ffffffffffffffffffffffffffffffffffffffff16815260200190815260200160002060003373ffffffffffffffffffffffffffffffffffffffff1673ffffffffffffffffffffffffffffffffffffffff16815260200190815260200160002054821115151561105457600080fd5b6110a682600e60008773ffffffffffffffffffffffffffffffffffffffff1673ffffffffffffffffffffffffffffffffffffffff168152602001908152602001600020546126e990919063ffffffff16565b600e60008673ffffffffffffffffffffffffffffffffffffffff1673ffffffffffffffffffffffffffffffffffffffff1681526020019081526020016000208190555061113b82600e60008673ffffffffffffffffffffffffffffffffffffffff1673ffffffffffffffffffffffffffffffffffffffff168152602001908152602001600020546126b090919063ffffffff16565b600e60008573ffffffffffffffffffffffffffffffffffffffff1673ffffffffffffffffffffffffffffffffffffffff1681526020019081526020016000208190555061120d82601460008773ffffffffffffffffffffffffffffffffffffffff1673ffffffffffffffffffffffffffffffffffffffff16815260200190815260200160002060003373ffffffffffffffffffffffffffffffffffffffff1673ffffffffffffffffffffffffffffffffffffffff168152602001908152602001600020546126e990919063ffffffff16565b601460008673ffffffffffffffffffffffffffffffffffffffff1673ffffffffffffffffffffffffffffffffffffffff16815260200190815260200160002060003373ffffffffffffffffffffffffffffffffffffffff1673ffffffffffffffffffffffffffffffffffffffff168152602001908152602001600020819055508273ffffffffffffffffffffffffffffffffffffffff168473ffffffffffffffffffffffffffffffffffffffff167fddf252ad1be2c89b69c2b068fc378daa952ba7f163c4a11628f55a4df523b3ef846040518082815260200191505060405180910390a3600190509392505050565b6000806000809054906101000a900473ffffffffffffffffffffffffffffffffffffffff1673ffffffffffffffffffffffffffffffffffffffff163373ffffffffffffffffffffffffffffffffffffffff1614156113e657600b6000868152602001908152602001600020549150600a8281548110151561137a57fe5b9060005260206000209060050201905080600201611397856125f1565b90806001815401808255809150509060018203906000526020600020016000909192909190915055508260ff168160030160006113d3876125f1565b8152602001908152602001600020819055505b5050505050565b60015481565b60008060009054906101000a900473ffffffffffffffffffffffffffffffffffffffff1673ffffffffffffffffffffffffffffffffffffffff163373ffffffffffffffffffffffffffffffffffffffff161415611490576008808054905081548110151561145d57fe5b906000526020600020906008020190508281600001819055508181600101908051906020019061148e92919061271f565b505b505050565b60008060009054906101000a900473ffffffffffffffffffffffffffffffffffffffff1673ffffffffffffffffffffffffffffffffffffffff163373ffffffffffffffffffffffffffffffffffffffff16141561156257600380805490508154811015156114ff57fe5b906000526020600020906002020190508281600001819055508181600101908051906020019061153092919061271f565b5061154a60016003805490506126e990919063ffffffff16565b60066000858152602001908152602001600020819055505b505050565b60008060009054906101000a900473ffffffffffffffffffffffffffffffffffffffff1673ffffffffffffffffffffffffffffffffffffffff163373ffffffffffffffffffffffffffffffffffffffff16141561163457600280805490508154811015156115d157fe5b906000526020600020906002020190508281600001819055508181600101908051906020019061160292919061271f565b5061161c60016002805490506126e990919063ffffffff16565b60056000858152602001908152602001600020819055505b505050565b6000806000806000806000809054906101000a900473ffffffffffffffffffffffffffffffffffffffff1673ffffffffffffffffffffffffffffffffffffffff163373ffffffffffffffffffffffffffffffffffffffff16141561189d57600d60008b73ffffffffffffffffffffffffffffffffffffffff1673ffffffffffffffffffffffffffffffffffffffff1681526020019081526020016000205495506116e2896125d4565b94506116ed886125f1565b93506116f88761260e565b9250611704848461262b565b9150600c8681548110151561171557fe5b90600052602060002090600b0201905080600901600084815260200190815260200160002060009054906101000a900460ff1615151561175457600080fd5b600181600901600085815260200190815260200160002060006101000a81548160ff0219169083151502179055508181600301600086815260200190815260200160002060008282829054906101000a900460ff160192506101000a81548160ff021916908360ff160217905550606481600301600086815260200190815260200160002060009054906101000a900460ff1660ff16141561184057600181600401600086815260200190815260200160002060006101000a81548160ff02191690831515021790555061183e61182b8686612674565b82600a01546126b090919063ffffffff16565b505b61189b61184d8686612674565b600e60008d73ffffffffffffffffffffffffffffffffffffffff1673ffffffffffffffffffffffffffffffffffffffff168152602001908152602001600020546126b090919063ffffffff16565b505b50505050505050505050565b60008060008060009054906101000a900473ffffffffffffffffffffffffffffffffffffffff1673ffffffffffffffffffffffffffffffffffffffff163373ffffffffffffffffffffffffffffffffffffffff16141561199e5761190c846125d4565b9250600d60008673ffffffffffffffffffffffffffffffffffffffff1673ffffffffffffffffffffffffffffffffffffffff168152602001908152602001600020549150600c8281548110151561195f57fe5b90600052602060002090600b02019050806002018390806001815401808255809150509060018203906000526020600020016000909192909190915055505b5050505050565b60008060009054906101000a900473ffffffffffffffffffffffffffffffffffffffff1673ffffffffffffffffffffffffffffffffffffffff163373ffffffffffffffffffffffffffffffffffffffff161415611a725760048080549050815481101515611a0f57fe5b9060005260206000209060020201905082816000018190555081816001019080519060200190611a4092919061271f565b50611a5a60016004805490506126e990919063ffffffff16565b60076000858152602001908152602001600020819055505b505050565b600080611a8261279f565b600d60008573ffffffffffffffffffffffffffffffffffffffff1673ffffffffffffffffffffffffffffffffffffffff168152602001908152602001600020549150600c82815481101515611ad357fe5b90600052602060002090600b0201608060405190810160405290816000820160009054906101000a900473ffffffffffffffffffffffffffffffffffffffff1673ffffffffffffffffffffffffffffffffffffffff1673ffffffffffffffffffffffffffffffffffffffff168152602001600182018054600181600116156101000203166002900480601f016020809104026020016040519081016040528092919081815260200182805460018160011615610100020316600290048015611bdc5780601f10611bb157610100808354040283529160200191611bdc565b820191906000526020600020905b815481529060010190602001808311611bbf57829003601f168201915b5050505050815260200160028201805480602002602001604051908101604052809291908181526020018280548015611c3457602002820191906000526020600020905b815481526020019060010190808311611c20575b50505050508152602001600a820154815250509050806060015192505050919050565b6000600e60008373ffffffffffffffffffffffffffffffffffffffff1673ffffffffffffffffffffffffffffffffffffffff168152602001908152602001600020549050919050565b6000809054906101000a900473ffffffffffffffffffffffffffffffffffffffff1681565b60008073ffffffffffffffffffffffffffffffffffffffff168373ffffffffffffffffffffffffffffffffffffffff1614151515611d0257600080fd5b600e60003373ffffffffffffffffffffffffffffffffffffffff1673ffffffffffffffffffffffffffffffffffffffff168152602001908152602001600020548211151515611d5057600080fd5b611da282600e60003373ffffffffffffffffffffffffffffffffffffffff1673ffffffffffffffffffffffffffffffffffffffff168152602001908152602001600020546126e990919063ffffffff16565b600e60003373ffffffffffffffffffffffffffffffffffffffff1673ffffffffffffffffffffffffffffffffffffffff16815260200190815260200160002081905550611e3782600e60008673ffffffffffffffffffffffffffffffffffffffff1673ffffffffffffffffffffffffffffffffffffffff168152602001908152602001600020546126b090919063ffffffff16565b600e60008573ffffffffffffffffffffffffffffffffffffffff1673ffffffffffffffffffffffffffffffffffffffff168152602001908152602001600020819055508273ffffffffffffffffffffffffffffffffffffffff163373ffffffffffffffffffffffffffffffffffffffff167fddf252ad1be2c89b69c2b068fc378daa952ba7f163c4a11628f55a4df523b3ef846040518082815260200191505060405180910390a36001905092915050565b6000806000809054906101000a900473ffffffffffffffffffffffffffffffffffffffff1673ffffffffffffffffffffffffffffffffffffffff163373ffffffffffffffffffffffffffffffffffffffff161415611fc557600c805490509150600c82815481101515611f5857fe5b90600052602060002090600b02019050838160000160006101000a81548173ffffffffffffffffffffffffffffffffffffffff021916908373ffffffffffffffffffffffffffffffffffffffff16021790555082816001019080519060200190611fc392919061271f565b505b50505050565b6000806000809054906101000a900473ffffffffffffffffffffffffffffffffffffffff1673ffffffffffffffffffffffffffffffffffffffff163373ffffffffffffffffffffffffffffffffffffffff16141561208457600b6000868152602001908152602001600020549150600a8281548110151561204857fe5b906000526020600020906005020190508481600001819055508381600101908051906020019061207992919061271f565b508281600401819055505b5050505050565b6000601460008473ffffffffffffffffffffffffffffffffffffffff1673ffffffffffffffffffffffffffffffffffffffff16815260200190815260200160002060008373ffffffffffffffffffffffffffffffffffffffff1673ffffffffffffffffffffffffffffffffffffffff16815260200190815260200160002054905092915050565b6000806000809054906101000a900473ffffffffffffffffffffffffffffffffffffffff1673ffffffffffffffffffffffffffffffffffffffff163373ffffffffffffffffffffffffffffffffffffffff161415612204576009600086815260200190815260200160002054915060088281548110151561218f57fe5b90600052602060002090600802019050806002016121ac8561260e565b90806001815401808255809150509060018203906000526020600020016000909192909190915055508281600501600086815260200190815260200160002060006101000a81548160ff021916908360ff1602179055505b5050505050565b6000806000809054906101000a900473ffffffffffffffffffffffffffffffffffffffff1673ffffffffffffffffffffffffffffffffffffffff163373ffffffffffffffffffffffffffffffffffffffff1614156122fd576009600086815260200190815260200160002054915060088281548110151561228857fe5b90600052602060002090600802019050806004016122a585612702565b90806001815401808255809150509060018203906000526020600020016000909192909190915055508281600701600086815260200190815260200160002060006101000a81548160ff021916908360ff1602179055505b5050505050565b6000806000806000806000809054906101000a900473ffffffffffffffffffffffffffffffffffffffff1673ffffffffffffffffffffffffffffffffffffffff163373ffffffffffffffffffffffffffffffffffffffff16141561256857600d60008b73ffffffffffffffffffffffffffffffffffffffff1673ffffffffffffffffffffffffffffffffffffffff1681526020019081526020016000205495506123ad896125d4565b94506123b8886125f1565b93506123c38761260e565b92506123cf848461262b565b9150600c868154811015156123e057fe5b90600052602060002090600b0201905080600701600084815260200190815260200160002060009054906101000a900460ff1615151561241f57600080fd5b600181600701600085815260200190815260200160002060006101000a81548160ff0219169083151502179055508181600301600086815260200190815260200160002060008282829054906101000a900460ff160192506101000a81548160ff021916908360ff160217905550606481600301600086815260200190815260200160002060009054906101000a900460ff1660ff16141561256757600181600401600086815260200190815260200160002060006101000a81548160ff0219169083151502179055506125096124f68686612674565b82600a01546126b090919063ffffffff16565b506125656125178686612674565b600e60008d73ffffffffffffffffffffffffffffffffffffffff1673ffffffffffffffffffffffffffffffffffffffff168152602001908152602001600020546126b090919063ffffffff16565b505b5b50505050505050505050565b6000809054906101000a900473ffffffffffffffffffffffffffffffffffffffff1673ffffffffffffffffffffffffffffffffffffffff163373ffffffffffffffffffffffffffffffffffffffff1614156125d157806001819055505b50565b6000600b6000838152602001908152602001600020549050919050565b600060096000838152602001908152602001600020549050919050565b600060056000838152602001908152602001600020549050919050565b600060088281548110151561263c57fe5b9060005260206000209060080201600501600084815260200190815260200160002060009054906101000a900460ff16905092915050565b6000600a8381548110151561268557fe5b9060005260206000209060050201600301600083815260200190815260200160002054905092915050565b600081830190508281101515156126c357fe5b80905092915050565b600060066000838152602001908152602001600020549050919050565b60008282111515156126f757fe5b818303905092915050565b600060076000838152602001908152602001600020549050919050565b828054600181600116156101000203166002900490600052602060002090601f016020900481019282601f1061276057805160ff191683800117855561278e565b8280016001018555821561278e579182015b8281111561278d578251825591602001919060010190612772565b5b50905061279b91906127de565b5090565b608060405190810160405280600073ffffffffffffffffffffffffffffffffffffffff1681526020016060815260200160608152602001600081525090565b61280091905b808211156127fc5760008160009055506001016127e4565b5090565b905600a165627a7a723058207afed6d9264526ccfdcefc2c3a6495dc8d69991c9c9fa1e04a80d34e32e64abb0029",
  "source": "pragma solidity ^0.4.23;\r\n\r\nimport \"./Student.sol\";\r\n\r\ncontract POKToken is Student {\r\n    string name;\r\n    string symbol;\r\n    uint256 totalSupplay;\r\n    uint256 decimals;\r\n    mapping(address => uint256) balance;\r\n    mapping (address => mapping (address => uint256)) internal allowed;\r\n\r\n    event Transfer(address indexed from, address indexed to, uint256 value);\r\n    event Approval(address indexed owner, address indexed spender, uint256 value);\r\n\r\n    constructor() public {\r\n        decimals = 18;\r\n        totalSupplay = 1e9 * 10 ** decimals;\r\n        name = \"Proof of Knowledge\";\r\n        symbol = \"POK\";\r\n    }\r\n\r\n    function balanceOf(address _student) public view returns (uint256) {\r\n        return balances[_student];\r\n    }\r\n\r\n    function transfer(address _to, uint256 _value) public returns (bool) {\r\n        require(_to != address(0));\r\n        require(_value <= balances[msg.sender]);\r\n\r\n        balances[msg.sender] = balances[msg.sender].sub(_value);\r\n        balances[_to] = balances[_to].add(_value);\r\n        emit Transfer(msg.sender, _to, _value);\r\n        return true;\r\n    }\r\n\r\n    function transferFrom(address _from, address _to, uint256 _value) public returns (bool) {\r\n        require(_to != address(0));\r\n        require(_value <= balances[_from]);\r\n        require(_value <= allowed[_from][msg.sender]);\r\n\r\n        balances[_from] = balances[_from].sub(_value);\r\n        balances[_to] = balances[_to].add(_value);\r\n        allowed[_from][msg.sender] = allowed[_from][msg.sender].sub(_value);\r\n        emit Transfer(_from, _to, _value);\r\n        return true;\r\n    }\r\n\r\n    function approve(address _spender, uint256 _value) public returns (bool) {\r\n        allowed[msg.sender][_spender] = _value;\r\n        emit Approval(msg.sender, _spender, _value);\r\n        return true;\r\n    }\r\n\r\n    function allowance(address _owner, address _spender) public view returns (uint256) {\r\n        return allowed[_owner][_spender];\r\n    }\r\n\r\n}",
  "sourcePath": "G:\\Root\\Blockchain\\Proof of Knowledge\\contracts\\POK.sol",
  "compiler": {
    "name": "solc",
    "version": "0.4.23+commit.124ca40d.Emscripten.clang"
  },
  "schemaVersion": "2.0.0",
  "updatedAt": "2018-05-27T19:32:12.892Z"
}