{
  "contractName": "Student",
  "abi": [
    {
      "constant": false,
      "inputs": [
        {
          "name": "new_address",
          "type": "address"
        }
      ],
      "name": "upgrade",
      "outputs": [],
      "payable": false,
      "stateMutability": "nonpayable",
      "type": "function"
    },
    {
      "constant": false,
      "inputs": [
        {
          "name": "_MilestoneUniqueCode",
          "type": "uint256"
        },
        {
          "name": "_CodeProjectUniqueCode",
          "type": "uint256"
        },
        {
          "name": "_share",
          "type": "uint8"
        }
      ],
      "name": "addCodeProjectToMilestone",
      "outputs": [],
      "payable": false,
      "stateMutability": "nonpayable",
      "type": "function"
    },
    {
      "constant": false,
      "inputs": [
        {
          "name": "_courseCode",
          "type": "uint256"
        },
        {
          "name": "_milestoneCode",
          "type": "uint256"
        },
        {
          "name": "_reward",
          "type": "uint8"
        }
      ],
      "name": "addMilestoneToCourse",
      "outputs": [],
      "payable": false,
      "stateMutability": "nonpayable",
      "type": "function"
    },
    {
      "constant": true,
      "inputs": [],
      "name": "last_completed_migration",
      "outputs": [
        {
          "name": "",
          "type": "uint256"
        }
      ],
      "payable": false,
      "stateMutability": "view",
      "type": "function"
    },
    {
      "constant": false,
      "inputs": [
        {
          "name": "_uniqueCode",
          "type": "uint256"
        },
        {
          "name": "_name",
          "type": "string"
        }
      ],
      "name": "createMilestone",
      "outputs": [],
      "payable": false,
      "stateMutability": "nonpayable",
      "type": "function"
    },
    {
      "constant": false,
      "inputs": [
        {
          "name": "_uniqueCode",
          "type": "uint256"
        },
        {
          "name": "_name",
          "type": "string"
        }
      ],
      "name": "addCodeProject",
      "outputs": [],
      "payable": false,
      "stateMutability": "nonpayable",
      "type": "function"
    },
    {
      "constant": false,
      "inputs": [
        {
          "name": "_uniqueCode",
          "type": "uint256"
        },
        {
          "name": "_name",
          "type": "string"
        }
      ],
      "name": "addVideo",
      "outputs": [],
      "payable": false,
      "stateMutability": "nonpayable",
      "type": "function"
    },
    {
      "constant": false,
      "inputs": [
        {
          "name": "_uniqueCode",
          "type": "uint256"
        },
        {
          "name": "_name",
          "type": "string"
        }
      ],
      "name": "addQuiz",
      "outputs": [],
      "payable": false,
      "stateMutability": "nonpayable",
      "type": "function"
    },
    {
      "constant": true,
      "inputs": [],
      "name": "owner",
      "outputs": [
        {
          "name": "",
          "type": "address"
        }
      ],
      "payable": false,
      "stateMutability": "view",
      "type": "function"
    },
    {
      "constant": false,
      "inputs": [
        {
          "name": "_uniqueCode",
          "type": "uint256"
        },
        {
          "name": "_name",
          "type": "string"
        },
        {
          "name": "_reward",
          "type": "uint256"
        }
      ],
      "name": "createCourse",
      "outputs": [],
      "payable": false,
      "stateMutability": "nonpayable",
      "type": "function"
    },
    {
      "constant": false,
      "inputs": [
        {
          "name": "_MilestoneUniqueCode",
          "type": "uint256"
        },
        {
          "name": "_VideoUniqueCode",
          "type": "uint256"
        },
        {
          "name": "_share",
          "type": "uint8"
        }
      ],
      "name": "addVideoToMilestone",
      "outputs": [],
      "payable": false,
      "stateMutability": "nonpayable",
      "type": "function"
    },
    {
      "constant": false,
      "inputs": [
        {
          "name": "_MilestoneUniqueCode",
          "type": "uint256"
        },
        {
          "name": "_QuizUniqueCode",
          "type": "uint256"
        },
        {
          "name": "_share",
          "type": "uint8"
        }
      ],
      "name": "addQuizToMilestone",
      "outputs": [],
      "payable": false,
      "stateMutability": "nonpayable",
      "type": "function"
    },
    {
      "constant": false,
      "inputs": [
        {
          "name": "completed",
          "type": "uint256"
        }
      ],
      "name": "setCompleted",
      "outputs": [],
      "payable": false,
      "stateMutability": "nonpayable",
      "type": "function"
    },
    {
      "constant": false,
      "inputs": [
        {
          "name": "_student",
          "type": "address"
        },
        {
          "name": "_name",
          "type": "string"
        }
      ],
      "name": "RegisterNewStudent",
      "outputs": [],
      "payable": false,
      "stateMutability": "nonpayable",
      "type": "function"
    },
    {
      "constant": false,
      "inputs": [
        {
          "name": "_student",
          "type": "address"
        },
        {
          "name": "_courseCode",
          "type": "uint256"
        }
      ],
      "name": "EnrollNewCourse",
      "outputs": [],
      "payable": false,
      "stateMutability": "nonpayable",
      "type": "function"
    },
    {
      "constant": false,
      "inputs": [
        {
          "name": "_student",
          "type": "address"
        },
        {
          "name": "_courseCode",
          "type": "uint256"
        },
        {
          "name": "_milestoneCode",
          "type": "uint256"
        },
        {
          "name": "_videoCode",
          "type": "uint256"
        }
      ],
      "name": "videoCompleted",
      "outputs": [],
      "payable": false,
      "stateMutability": "nonpayable",
      "type": "function"
    },
    {
      "constant": false,
      "inputs": [
        {
          "name": "_student",
          "type": "address"
        },
        {
          "name": "_courseCode",
          "type": "uint256"
        },
        {
          "name": "_milestoneCode",
          "type": "uint256"
        },
        {
          "name": "_codeProjectCode",
          "type": "uint256"
        }
      ],
      "name": "codeProjectCompleted",
      "outputs": [],
      "payable": false,
      "stateMutability": "nonpayable",
      "type": "function"
    },
    {
      "constant": false,
      "inputs": [
        {
          "name": "_student",
          "type": "address"
        },
        {
          "name": "_courseCode",
          "type": "uint256"
        },
        {
          "name": "_milestoneCode",
          "type": "uint256"
        },
        {
          "name": "_quizCode",
          "type": "uint256"
        }
      ],
      "name": "quizCompleted",
      "outputs": [],
      "payable": false,
      "stateMutability": "nonpayable",
      "type": "function"
    }
  ],
  "bytecode": "0x6080604052336000806101000a81548173ffffffffffffffffffffffffffffffffffffffff021916908373ffffffffffffffffffffffffffffffffffffffff160217905550611aa1806100536000396000f3006080604052600436106100fc576000357c0100000000000000000000000000000000000000000000000000000000900463ffffffff1680630900f01014610101578063152862581461014457806319c16ce8146101a557806333f2122c146101e9578063445df0ac1461022d57806344d0be641461025857806352c63818146102cb57806357c4699c1461033e578063606baf01146103b1578063639c062e1461041257806369f6af9e1461045f5780638da5cb5b146104d2578063d3dc5c3a14610529578063d7237f02146105b2578063e1a2d3611461062f578063f485d1b614610673578063f6a1eeb6146106b7578063fdacd57614610718575b600080fd5b34801561010d57600080fd5b50610142600480360381019080803573ffffffffffffffffffffffffffffffffffffffff169060200190929190505050610745565b005b34801561015057600080fd5b506101a3600480360381019080803573ffffffffffffffffffffffffffffffffffffffff16906020019092919080359060200190929190803590602001909291908035906020019092919050505061082d565b005b3480156101b157600080fd5b506101e76004803603810190808035906020019092919080359060200190929190803560ff169060200190929190505050610a41565b005b3480156101f557600080fd5b5061022b6004803603810190808035906020019092919080359060200190929190803560ff169060200190929190505050610b3a565b005b34801561023957600080fd5b50610242610c2a565b6040518082815260200191505060405180910390f35b34801561026457600080fd5b506102c960048036038101908080359060200190929190803590602001908201803590602001908080601f0160208091040260200160405190810160405280939291908181526020018383808284378201915050505050509192919290505050610c30565b005b3480156102d757600080fd5b5061033c60048036038101908080359060200190929190803590602001908201803590602001908080601f0160208091040260200160405190810160405280939291908181526020018383808284378201915050505050509192919290505050610cd2565b005b34801561034a57600080fd5b506103af60048036038101908080359060200190929190803590602001908201803590602001908080601f0160208091040260200160405190810160405280939291908181526020018383808284378201915050505050509192919290505050610da4565b005b3480156103bd57600080fd5b50610410600480360381019080803573ffffffffffffffffffffffffffffffffffffffff169060200190929190803590602001909291908035906020019092919080359060200190929190505050610e76565b005b34801561041e57600080fd5b5061045d600480360381019080803573ffffffffffffffffffffffffffffffffffffffff1690602001909291908035906020019092919050505061108a565b005b34801561046b57600080fd5b506104d060048036038101908080359060200190929190803590602001908201803590602001908080601f0160208091040260200160405190810160405280939291908181526020018383808284378201915050505050509192919290505050611186565b005b3480156104de57600080fd5b506104e7611258565b604051808273ffffffffffffffffffffffffffffffffffffffff1673ffffffffffffffffffffffffffffffffffffffff16815260200191505060405180910390f35b34801561053557600080fd5b506105b0600480360381019080803573ffffffffffffffffffffffffffffffffffffffff169060200190929190803590602001908201803590602001908080601f016020809104026020016040519081016040528093929190818152602001838380828437820191505050505050919291929050505061127d565b005b3480156105be57600080fd5b5061062d60048036038101908080359060200190929190803590602001908201803590602001908080601f01602080910402602001604051908101604052809392919081815260200183838082843782019150505050505091929192908035906020019092919050505061135f565b005b34801561063b57600080fd5b506106716004803603810190808035906020019092919080359060200190929190803560ff16906020019092919050505061141f565b005b34801561067f57600080fd5b506106b56004803603810190808035906020019092919080359060200190929190803560ff169060200190929190505050611518565b005b3480156106c357600080fd5b50610716600480360381019080803573ffffffffffffffffffffffffffffffffffffffff169060200190929190803590602001909291908035906020019092919080359060200190929190505050611611565b005b34801561072457600080fd5b5061074360048036038101908080359060200190929190505050611825565b005b60008060009054906101000a900473ffffffffffffffffffffffffffffffffffffffff1673ffffffffffffffffffffffffffffffffffffffff163373ffffffffffffffffffffffffffffffffffffffff161415610829578190508073ffffffffffffffffffffffffffffffffffffffff1663fdacd5766001546040518263ffffffff167c010000000000000000000000000000000000000000000000000000000002815260040180828152602001915050600060405180830381600087803b15801561081057600080fd5b505af1158015610824573d6000803e3d6000fd5b505050505b5050565b6000806000806000806000809054906101000a900473ffffffffffffffffffffffffffffffffffffffff1673ffffffffffffffffffffffffffffffffffffffff163373ffffffffffffffffffffffffffffffffffffffff161415610a3557600d60008b73ffffffffffffffffffffffffffffffffffffffff1673ffffffffffffffffffffffffffffffffffffffff1681526020019081526020016000205495506108d689611885565b94506108e1886118a2565b93506108ec876118bf565b92506108f884846118dc565b9150600c8681548110151561090957fe5b90600052602060002090600b0201905080600801600084815260200190815260200160002060009054906101000a900460ff1615151561094857600080fd5b600181600801600085815260200190815260200160002060006101000a81548160ff0219169083151502179055508181600301600086815260200190815260200160002060008282829054906101000a900460ff160192506101000a81548160ff021916908360ff160217905550606481600301600086815260200190815260200160002060009054906101000a900460ff1660ff161415610a3457600181600401600086815260200190815260200160002060006101000a81548160ff021916908315150217905550610a32610a1f8686611925565b82600a015461196190919063ffffffff16565b505b5b50505050505050505050565b6000806000809054906101000a900473ffffffffffffffffffffffffffffffffffffffff1673ffffffffffffffffffffffffffffffffffffffff163373ffffffffffffffffffffffffffffffffffffffff161415610b335760096000868152602001908152602001600020549150600882815481101515610abe57fe5b9060005260206000209060080201905080600301610adb8561197d565b90806001815401808255809150509060018203906000526020600020016000909192909190915055508281600601600086815260200190815260200160002060006101000a81548160ff021916908360ff1602179055505b5050505050565b6000806000809054906101000a900473ffffffffffffffffffffffffffffffffffffffff1673ffffffffffffffffffffffffffffffffffffffff163373ffffffffffffffffffffffffffffffffffffffff161415610c2357600b6000868152602001908152602001600020549150600a82815481101515610bb757fe5b9060005260206000209060050201905080600201610bd4856118a2565b90806001815401808255809150509060018203906000526020600020016000909192909190915055508260ff16816003016000610c10876118a2565b8152602001908152602001600020819055505b5050505050565b60015481565b60008060009054906101000a900473ffffffffffffffffffffffffffffffffffffffff1673ffffffffffffffffffffffffffffffffffffffff163373ffffffffffffffffffffffffffffffffffffffff161415610ccd5760088080549050815481101515610c9a57fe5b9060005260206000209060080201905082816000018190555081816001019080519060200190610ccb9291906119d0565b505b505050565b60008060009054906101000a900473ffffffffffffffffffffffffffffffffffffffff1673ffffffffffffffffffffffffffffffffffffffff163373ffffffffffffffffffffffffffffffffffffffff161415610d9f5760038080549050815481101515610d3c57fe5b9060005260206000209060020201905082816000018190555081816001019080519060200190610d6d9291906119d0565b50610d87600160038054905061199a90919063ffffffff16565b60066000858152602001908152602001600020819055505b505050565b60008060009054906101000a900473ffffffffffffffffffffffffffffffffffffffff1673ffffffffffffffffffffffffffffffffffffffff163373ffffffffffffffffffffffffffffffffffffffff161415610e715760028080549050815481101515610e0e57fe5b9060005260206000209060020201905082816000018190555081816001019080519060200190610e3f9291906119d0565b50610e59600160028054905061199a90919063ffffffff16565b60056000858152602001908152602001600020819055505b505050565b6000806000806000806000809054906101000a900473ffffffffffffffffffffffffffffffffffffffff1673ffffffffffffffffffffffffffffffffffffffff163373ffffffffffffffffffffffffffffffffffffffff16141561107e57600d60008b73ffffffffffffffffffffffffffffffffffffffff1673ffffffffffffffffffffffffffffffffffffffff168152602001908152602001600020549550610f1f89611885565b9450610f2a886118a2565b9350610f35876118bf565b9250610f4184846118dc565b9150600c86815481101515610f5257fe5b90600052602060002090600b0201905080600901600084815260200190815260200160002060009054906101000a900460ff16151515610f9157600080fd5b600181600901600085815260200190815260200160002060006101000a81548160ff0219169083151502179055508181600301600086815260200190815260200160002060008282829054906101000a900460ff160192506101000a81548160ff021916908360ff160217905550606481600301600086815260200190815260200160002060009054906101000a900460ff1660ff16141561107d57600181600401600086815260200190815260200160002060006101000a81548160ff02191690831515021790555061107b6110688686611925565b82600a015461196190919063ffffffff16565b505b5b50505050505050505050565b60008060008060009054906101000a900473ffffffffffffffffffffffffffffffffffffffff1673ffffffffffffffffffffffffffffffffffffffff163373ffffffffffffffffffffffffffffffffffffffff16141561117f576110ed84611885565b9250600d60008673ffffffffffffffffffffffffffffffffffffffff1673ffffffffffffffffffffffffffffffffffffffff168152602001908152602001600020549150600c8281548110151561114057fe5b90600052602060002090600b02019050806002018390806001815401808255809150509060018203906000526020600020016000909192909190915055505b5050505050565b60008060009054906101000a900473ffffffffffffffffffffffffffffffffffffffff1673ffffffffffffffffffffffffffffffffffffffff163373ffffffffffffffffffffffffffffffffffffffff16141561125357600480805490508154811015156111f057fe5b90600052602060002090600202019050828160000181905550818160010190805190602001906112219291906119d0565b5061123b600160048054905061199a90919063ffffffff16565b60076000858152602001908152602001600020819055505b505050565b6000809054906101000a900473ffffffffffffffffffffffffffffffffffffffff1681565b6000806000809054906101000a900473ffffffffffffffffffffffffffffffffffffffff1673ffffffffffffffffffffffffffffffffffffffff163373ffffffffffffffffffffffffffffffffffffffff16141561135957600c805490509150600c828154811015156112ec57fe5b90600052602060002090600b02019050838160000160006101000a81548173ffffffffffffffffffffffffffffffffffffffff021916908373ffffffffffffffffffffffffffffffffffffffff160217905550828160010190805190602001906113579291906119d0565b505b50505050565b6000806000809054906101000a900473ffffffffffffffffffffffffffffffffffffffff1673ffffffffffffffffffffffffffffffffffffffff163373ffffffffffffffffffffffffffffffffffffffff16141561141857600b6000868152602001908152602001600020549150600a828154811015156113dc57fe5b906000526020600020906005020190508481600001819055508381600101908051906020019061140d9291906119d0565b508281600401819055505b5050505050565b6000806000809054906101000a900473ffffffffffffffffffffffffffffffffffffffff1673ffffffffffffffffffffffffffffffffffffffff163373ffffffffffffffffffffffffffffffffffffffff161415611511576009600086815260200190815260200160002054915060088281548110151561149c57fe5b90600052602060002090600802019050806002016114b9856118bf565b90806001815401808255809150509060018203906000526020600020016000909192909190915055508281600501600086815260200190815260200160002060006101000a81548160ff021916908360ff1602179055505b5050505050565b6000806000809054906101000a900473ffffffffffffffffffffffffffffffffffffffff1673ffffffffffffffffffffffffffffffffffffffff163373ffffffffffffffffffffffffffffffffffffffff16141561160a576009600086815260200190815260200160002054915060088281548110151561159557fe5b90600052602060002090600802019050806004016115b2856119b3565b90806001815401808255809150509060018203906000526020600020016000909192909190915055508281600701600086815260200190815260200160002060006101000a81548160ff021916908360ff1602179055505b5050505050565b6000806000806000806000809054906101000a900473ffffffffffffffffffffffffffffffffffffffff1673ffffffffffffffffffffffffffffffffffffffff163373ffffffffffffffffffffffffffffffffffffffff16141561181957600d60008b73ffffffffffffffffffffffffffffffffffffffff1673ffffffffffffffffffffffffffffffffffffffff1681526020019081526020016000205495506116ba89611885565b94506116c5886118a2565b93506116d0876118bf565b92506116dc84846118dc565b9150600c868154811015156116ed57fe5b90600052602060002090600b0201905080600701600084815260200190815260200160002060009054906101000a900460ff1615151561172c57600080fd5b600181600701600085815260200190815260200160002060006101000a81548160ff0219169083151502179055508181600301600086815260200190815260200160002060008282829054906101000a900460ff160192506101000a81548160ff021916908360ff160217905550606481600301600086815260200190815260200160002060009054906101000a900460ff1660ff16141561181857600181600401600086815260200190815260200160002060006101000a81548160ff0219169083151502179055506118166118038686611925565b82600a015461196190919063ffffffff16565b505b5b50505050505050505050565b6000809054906101000a900473ffffffffffffffffffffffffffffffffffffffff1673ffffffffffffffffffffffffffffffffffffffff163373ffffffffffffffffffffffffffffffffffffffff16141561188257806001819055505b50565b6000600b6000838152602001908152602001600020549050919050565b600060096000838152602001908152602001600020549050919050565b600060056000838152602001908152602001600020549050919050565b60006008828154811015156118ed57fe5b9060005260206000209060080201600501600084815260200190815260200160002060009054906101000a900460ff16905092915050565b6000600a8381548110151561193657fe5b9060005260206000209060050201600301600083815260200190815260200160002054905092915050565b6000818301905082811015151561197457fe5b80905092915050565b600060066000838152602001908152602001600020549050919050565b60008282111515156119a857fe5b818303905092915050565b600060076000838152602001908152602001600020549050919050565b828054600181600116156101000203166002900490600052602060002090601f016020900481019282601f10611a1157805160ff1916838001178555611a3f565b82800160010185558215611a3f579182015b82811115611a3e578251825591602001919060010190611a23565b5b509050611a4c9190611a50565b5090565b611a7291905b80821115611a6e576000816000905550600101611a56565b5090565b905600a165627a7a723058207b8432ab87b8b2c3483b6fb63c1fb43b789a89e58944efe0c1ba08637a988d610029",
  "source": "pragma solidity ^0.4.23;\r\n\r\nimport \"./Course.sol\";\r\n\r\ncontract Student is Course {\r\n    struct student {\r\n        address Address;\r\n        string name;\r\n        uint256[] AllCourses;\r\n        mapping(uint256 => uint8) MilestoneProgress;\r\n        mapping(uint256 => bool) MilestonesDone;\r\n        mapping(uint256 => uint8) CoursesProgress;\r\n        mapping(uint256 => bool) CoursesDone;\r\n        mapping(uint256 => bool) VideosDone;\r\n        mapping(uint256 => bool) CodesDone;\r\n        mapping(uint256 => bool) QuizesDone;\r\n        uint256 Rewards;\r\n    }\r\n\r\n    student[] AllStudents;\r\n    mapping(address => uint256) StudentIndex; \r\n\r\n    function RegisterNewStudent(address _student, string _name) public onlyOwner {\r\n        uint256 studentIndex = AllStudents.length;\r\n        student storage newStudent = AllStudents[studentIndex];\r\n        newStudent.Address = _student;\r\n        newStudent.name = _name;\r\n    }\r\n\r\n    function EnrollNewCourse(address _student, uint256 _courseCode) public onlyOwner {\r\n        uint256 courseIndex = getCourseIndex(_courseCode);\r\n        uint256 studentIndex = StudentIndex[_student];\r\n        student storage _Student = AllStudents[studentIndex];\r\n        _Student.AllCourses.push(courseIndex);\r\n    }\r\n\r\n    function videoCompleted(address _student, uint256 _courseCode, uint256 _milestoneCode, uint256 _videoCode) public onlyOwner {\r\n        uint256 studentIndex = StudentIndex[_student];\r\n        uint256 courseIndex = getCourseIndex(_courseCode);\r\n        uint256 milestoneIndex = getMilestoneIndex(_milestoneCode);\r\n        uint256 videoIndex = getVideoIndex(_videoCode);\r\n        uint8 progress = getProgressByVideo(milestoneIndex, videoIndex);\r\n        student storage _Student = AllStudents[studentIndex];\r\n        require(!_Student.VideosDone[videoIndex]);\r\n        _Student.VideosDone[videoIndex] = true;\r\n        _Student.MilestoneProgress[milestoneIndex] += progress;\r\n        if (_Student.MilestoneProgress[milestoneIndex] == 100) {\r\n            _Student.MilestonesDone[milestoneIndex] = true;\r\n            _Student.Rewards.add(getMilestoneReward(courseIndex, milestoneIndex));\r\n        }\r\n    }\r\n\r\n    function codeProjectCompleted(address _student, uint256 _courseCode, uint256 _milestoneCode, uint256 _codeProjectCode) public onlyOwner {\r\n        uint256 studentIndex = StudentIndex[_student];\r\n        uint256 courseIndex = getCourseIndex(_courseCode);\r\n        uint256 milestoneIndex = getMilestoneIndex(_milestoneCode);\r\n        uint256 codeIndex = getVideoIndex(_codeProjectCode);\r\n        uint8 progress = getProgressByVideo(milestoneIndex, codeIndex);\r\n        student storage _Student = AllStudents[studentIndex];\r\n        require(!_Student.CodesDone[codeIndex]);\r\n        _Student.CodesDone[codeIndex] = true;\r\n        _Student.MilestoneProgress[milestoneIndex] += progress;\r\n        if (_Student.MilestoneProgress[milestoneIndex] == 100) {\r\n            _Student.MilestonesDone[milestoneIndex] = true;\r\n            _Student.Rewards.add(getMilestoneReward(courseIndex, milestoneIndex));\r\n        }\r\n    }\r\n\r\n    function quizCompleted(address _student, uint256 _courseCode, uint256 _milestoneCode, uint256 _quizCode) public onlyOwner {\r\n        uint256 studentIndex = StudentIndex[_student];\r\n        uint256 courseIndex = getCourseIndex(_courseCode);\r\n        uint256 milestoneIndex = getMilestoneIndex(_milestoneCode);\r\n        uint256 quizIndex = getVideoIndex(_quizCode);\r\n        uint8 progress = getProgressByVideo(milestoneIndex, quizIndex);\r\n        student storage _Student = AllStudents[studentIndex];\r\n        require(!_Student.QuizesDone[quizIndex]);\r\n        _Student.QuizesDone[quizIndex] = true;\r\n        _Student.MilestoneProgress[milestoneIndex] += progress;\r\n        if (_Student.MilestoneProgress[milestoneIndex] == 100) {\r\n            _Student.MilestonesDone[milestoneIndex] = true;\r\n            _Student.Rewards.add(getMilestoneReward(courseIndex, milestoneIndex));\r\n        }\r\n    }\r\n}",
  "sourcePath": "G:\\Root\\Blockchain\\Proof of Knowledge\\contracts\\Student.sol",
  "compiler": {
    "name": "solc",
    "version": "0.4.23+commit.124ca40d.Emscripten.clang"
  },
  "schemaVersion": "2.0.0",
  "updatedAt": "2018-05-27T19:09:36.125Z"
}