{
  "contractName": "Student",
  "abi": [
    {
      "constant": false,
      "inputs": [
        {
          "name": "new_address",
          "type": "address"
        }
      ],
      "name": "upgrade",
      "outputs": [],
      "payable": false,
      "stateMutability": "nonpayable",
      "type": "function"
    },
    {
      "constant": false,
      "inputs": [
        {
          "name": "_MilestoneUniqueCode",
          "type": "uint256"
        },
        {
          "name": "_CodeProjectUniqueCode",
          "type": "uint256"
        },
        {
          "name": "_share",
          "type": "uint8"
        }
      ],
      "name": "addCodeProjectToMilestone",
      "outputs": [],
      "payable": false,
      "stateMutability": "nonpayable",
      "type": "function"
    },
    {
      "constant": false,
      "inputs": [
        {
          "name": "_courseCode",
          "type": "uint256"
        },
        {
          "name": "_milestoneCode",
          "type": "uint256"
        },
        {
          "name": "_reward",
          "type": "uint8"
        }
      ],
      "name": "addMilestoneToCourse",
      "outputs": [],
      "payable": false,
      "stateMutability": "nonpayable",
      "type": "function"
    },
    {
      "constant": true,
      "inputs": [],
      "name": "last_completed_migration",
      "outputs": [
        {
          "name": "",
          "type": "uint256"
        }
      ],
      "payable": false,
      "stateMutability": "view",
      "type": "function"
    },
    {
      "constant": false,
      "inputs": [
        {
          "name": "_uniqueCode",
          "type": "uint256"
        },
        {
          "name": "_name",
          "type": "string"
        }
      ],
      "name": "createMilestone",
      "outputs": [],
      "payable": false,
      "stateMutability": "nonpayable",
      "type": "function"
    },
    {
      "constant": false,
      "inputs": [
        {
          "name": "_uniqueCode",
          "type": "uint256"
        },
        {
          "name": "_name",
          "type": "string"
        }
      ],
      "name": "addCodeProject",
      "outputs": [],
      "payable": false,
      "stateMutability": "nonpayable",
      "type": "function"
    },
    {
      "constant": false,
      "inputs": [
        {
          "name": "_uniqueCode",
          "type": "uint256"
        },
        {
          "name": "_name",
          "type": "string"
        }
      ],
      "name": "addVideo",
      "outputs": [],
      "payable": false,
      "stateMutability": "nonpayable",
      "type": "function"
    },
    {
      "constant": false,
      "inputs": [
        {
          "name": "_uniqueCode",
          "type": "uint256"
        },
        {
          "name": "_name",
          "type": "string"
        }
      ],
      "name": "addQuiz",
      "outputs": [],
      "payable": false,
      "stateMutability": "nonpayable",
      "type": "function"
    },
    {
      "constant": true,
      "inputs": [],
      "name": "owner",
      "outputs": [
        {
          "name": "",
          "type": "address"
        }
      ],
      "payable": false,
      "stateMutability": "view",
      "type": "function"
    },
    {
      "constant": false,
      "inputs": [
        {
          "name": "_uniqueCode",
          "type": "uint256"
        },
        {
          "name": "_name",
          "type": "string"
        },
        {
          "name": "_reward",
          "type": "uint256"
        }
      ],
      "name": "createCourse",
      "outputs": [],
      "payable": false,
      "stateMutability": "nonpayable",
      "type": "function"
    },
    {
      "constant": false,
      "inputs": [
        {
          "name": "_MilestoneUniqueCode",
          "type": "uint256"
        },
        {
          "name": "_VideoUniqueCode",
          "type": "uint256"
        },
        {
          "name": "_share",
          "type": "uint8"
        }
      ],
      "name": "addVideoToMilestone",
      "outputs": [],
      "payable": false,
      "stateMutability": "nonpayable",
      "type": "function"
    },
    {
      "constant": false,
      "inputs": [
        {
          "name": "_MilestoneUniqueCode",
          "type": "uint256"
        },
        {
          "name": "_QuizUniqueCode",
          "type": "uint256"
        },
        {
          "name": "_share",
          "type": "uint8"
        }
      ],
      "name": "addQuizToMilestone",
      "outputs": [],
      "payable": false,
      "stateMutability": "nonpayable",
      "type": "function"
    },
    {
      "constant": false,
      "inputs": [
        {
          "name": "completed",
          "type": "uint256"
        }
      ],
      "name": "setCompleted",
      "outputs": [],
      "payable": false,
      "stateMutability": "nonpayable",
      "type": "function"
    },
    {
      "constant": false,
      "inputs": [
        {
          "name": "_student",
          "type": "address"
        },
        {
          "name": "_name",
          "type": "string"
        }
      ],
      "name": "RegisterNewStudent",
      "outputs": [],
      "payable": false,
      "stateMutability": "nonpayable",
      "type": "function"
    },
    {
      "constant": false,
      "inputs": [
        {
          "name": "_student",
          "type": "address"
        },
        {
          "name": "_courseCode",
          "type": "uint256"
        }
      ],
      "name": "EnrollNewCourse",
      "outputs": [],
      "payable": false,
      "stateMutability": "nonpayable",
      "type": "function"
    },
    {
      "constant": false,
      "inputs": [
        {
          "name": "_student",
          "type": "address"
        },
        {
          "name": "_courseCode",
          "type": "uint256"
        },
        {
          "name": "_milestoneCode",
          "type": "uint256"
        },
        {
          "name": "_videoCode",
          "type": "uint256"
        }
      ],
      "name": "videoCompleted",
      "outputs": [],
      "payable": false,
      "stateMutability": "nonpayable",
      "type": "function"
    },
    {
      "constant": false,
      "inputs": [
        {
          "name": "_student",
          "type": "address"
        },
        {
          "name": "_courseCode",
          "type": "uint256"
        },
        {
          "name": "_milestoneCode",
          "type": "uint256"
        },
        {
          "name": "_codeProjectCode",
          "type": "uint256"
        }
      ],
      "name": "codeProjectCompleted",
      "outputs": [],
      "payable": false,
      "stateMutability": "nonpayable",
      "type": "function"
    },
    {
      "constant": false,
      "inputs": [
        {
          "name": "_student",
          "type": "address"
        },
        {
          "name": "_courseCode",
          "type": "uint256"
        },
        {
          "name": "_milestoneCode",
          "type": "uint256"
        },
        {
          "name": "_quizCode",
          "type": "uint256"
        }
      ],
      "name": "quizCompleted",
      "outputs": [],
      "payable": false,
      "stateMutability": "nonpayable",
      "type": "function"
    },
    {
      "constant": true,
      "inputs": [
        {
          "name": "_student",
          "type": "address"
        }
      ],
      "name": "getStudentRewards",
      "outputs": [
        {
          "name": "",
          "type": "uint256"
        }
      ],
      "payable": false,
      "stateMutability": "view",
      "type": "function"
    }
  ],
  "bytecode": "0x6080604052336000806101000a81548173ffffffffffffffffffffffffffffffffffffffff021916908373ffffffffffffffffffffffffffffffffffffffff160217905550611e36806100536000396000f300608060405260043610610107576000357c0100000000000000000000000000000000000000000000000000000000900463ffffffff1680630900f0101461010c578063152862581461014f57806319c16ce8146101b057806333f2122c146101f4578063445df0ac1461023857806344d0be641461026357806352c63818146102d657806357c4699c14610349578063606baf01146103bc578063639c062e1461041d57806369f6af9e1461046a5780636dd9afa4146104dd5780638da5cb5b14610534578063d3dc5c3a1461058b578063d7237f0214610614578063e1a2d36114610691578063f485d1b6146106d5578063f6a1eeb614610719578063fdacd5761461077a575b600080fd5b34801561011857600080fd5b5061014d600480360381019080803573ffffffffffffffffffffffffffffffffffffffff1690602001909291905050506107a7565b005b34801561015b57600080fd5b506101ae600480360381019080803573ffffffffffffffffffffffffffffffffffffffff16906020019092919080359060200190929190803590602001909291908035906020019092919050505061088f565b005b3480156101bc57600080fd5b506101f26004803603810190808035906020019092919080359060200190929190803560ff169060200190929190505050610aff565b005b34801561020057600080fd5b506102366004803603810190808035906020019092919080359060200190929190803560ff169060200190929190505050610bf8565b005b34801561024457600080fd5b5061024d610ce8565b6040518082815260200191505060405180910390f35b34801561026f57600080fd5b506102d460048036038101908080359060200190929190803590602001908201803590602001908080601f0160208091040260200160405190810160405280939291908181526020018383808284378201915050505050509192919290505050610cee565b005b3480156102e257600080fd5b5061034760048036038101908080359060200190929190803590602001908201803590602001908080601f0160208091040260200160405190810160405280939291908181526020018383808284378201915050505050509192919290505050610d90565b005b34801561035557600080fd5b506103ba60048036038101908080359060200190929190803590602001908201803590602001908080601f0160208091040260200160405190810160405280939291908181526020018383808284378201915050505050509192919290505050610e62565b005b3480156103c857600080fd5b5061041b600480360381019080803573ffffffffffffffffffffffffffffffffffffffff169060200190929190803590602001909291908035906020019092919080359060200190929190505050610f34565b005b34801561042957600080fd5b50610468600480360381019080803573ffffffffffffffffffffffffffffffffffffffff169060200190929190803590602001909291905050506111a4565b005b34801561047657600080fd5b506104db60048036038101908080359060200190929190803590602001908201803590602001908080601f01602080910402602001604051908101604052809392919081815260200183838082843782019150505050505091929192905050506112a0565b005b3480156104e957600080fd5b5061051e600480360381019080803573ffffffffffffffffffffffffffffffffffffffff169060200190929190505050611372565b6040518082815260200191505060405180910390f35b34801561054057600080fd5b50610549611552565b604051808273ffffffffffffffffffffffffffffffffffffffff1673ffffffffffffffffffffffffffffffffffffffff16815260200191505060405180910390f35b34801561059757600080fd5b50610612600480360381019080803573ffffffffffffffffffffffffffffffffffffffff169060200190929190803590602001908201803590602001908080601f0160208091040260200160405190810160405280939291908181526020018383808284378201915050505050509192919290505050611577565b005b34801561062057600080fd5b5061068f60048036038101908080359060200190929190803590602001908201803590602001908080601f016020809104026020016040519081016040528093929190818152602001838380828437820191505050505050919291929080359060200190929190505050611659565b005b34801561069d57600080fd5b506106d36004803603810190808035906020019092919080359060200190929190803560ff169060200190929190505050611719565b005b3480156106e157600080fd5b506107176004803603810190808035906020019092919080359060200190929190803560ff169060200190929190505050611812565b005b34801561072557600080fd5b50610778600480360381019080803573ffffffffffffffffffffffffffffffffffffffff16906020019092919080359060200190929190803590602001909291908035906020019092919050505061190b565b005b34801561078657600080fd5b506107a560048036038101908080359060200190929190505050611b7b565b005b60008060009054906101000a900473ffffffffffffffffffffffffffffffffffffffff1673ffffffffffffffffffffffffffffffffffffffff163373ffffffffffffffffffffffffffffffffffffffff16141561088b578190508073ffffffffffffffffffffffffffffffffffffffff1663fdacd5766001546040518263ffffffff167c010000000000000000000000000000000000000000000000000000000002815260040180828152602001915050600060405180830381600087803b15801561087257600080fd5b505af1158015610886573d6000803e3d6000fd5b505050505b5050565b6000806000806000806000809054906101000a900473ffffffffffffffffffffffffffffffffffffffff1673ffffffffffffffffffffffffffffffffffffffff163373ffffffffffffffffffffffffffffffffffffffff161415610af357600d60008b73ffffffffffffffffffffffffffffffffffffffff1673ffffffffffffffffffffffffffffffffffffffff16815260200190815260200160002054955061093889611bdb565b945061094388611bf8565b935061094e87611c15565b925061095a8484611c32565b9150600c8681548110151561096b57fe5b90600052602060002090600b0201905080600801600084815260200190815260200160002060009054906101000a900460ff161515156109aa57600080fd5b600181600801600085815260200190815260200160002060006101000a81548160ff0219169083151502179055508181600301600086815260200190815260200160002060008282829054906101000a900460ff160192506101000a81548160ff021916908360ff160217905550606481600301600086815260200190815260200160002060009054906101000a900460ff1660ff161415610a9657600181600401600086815260200190815260200160002060006101000a81548160ff021916908315150217905550610a94610a818686611c7b565b82600a0154611cb790919063ffffffff16565b505b610af1610aa38686611c7b565b600e60008d73ffffffffffffffffffffffffffffffffffffffff1673ffffffffffffffffffffffffffffffffffffffff16815260200190815260200160002054611cb790919063ffffffff16565b505b50505050505050505050565b6000806000809054906101000a900473ffffffffffffffffffffffffffffffffffffffff1673ffffffffffffffffffffffffffffffffffffffff163373ffffffffffffffffffffffffffffffffffffffff161415610bf15760096000868152602001908152602001600020549150600882815481101515610b7c57fe5b9060005260206000209060080201905080600301610b9985611cd3565b90806001815401808255809150509060018203906000526020600020016000909192909190915055508281600601600086815260200190815260200160002060006101000a81548160ff021916908360ff1602179055505b5050505050565b6000806000809054906101000a900473ffffffffffffffffffffffffffffffffffffffff1673ffffffffffffffffffffffffffffffffffffffff163373ffffffffffffffffffffffffffffffffffffffff161415610ce157600b6000868152602001908152602001600020549150600a82815481101515610c7557fe5b9060005260206000209060050201905080600201610c9285611bf8565b90806001815401808255809150509060018203906000526020600020016000909192909190915055508260ff16816003016000610cce87611bf8565b8152602001908152602001600020819055505b5050505050565b60015481565b60008060009054906101000a900473ffffffffffffffffffffffffffffffffffffffff1673ffffffffffffffffffffffffffffffffffffffff163373ffffffffffffffffffffffffffffffffffffffff161415610d8b5760088080549050815481101515610d5857fe5b9060005260206000209060080201905082816000018190555081816001019080519060200190610d89929190611d26565b505b505050565b60008060009054906101000a900473ffffffffffffffffffffffffffffffffffffffff1673ffffffffffffffffffffffffffffffffffffffff163373ffffffffffffffffffffffffffffffffffffffff161415610e5d5760038080549050815481101515610dfa57fe5b9060005260206000209060020201905082816000018190555081816001019080519060200190610e2b929190611d26565b50610e456001600380549050611cf090919063ffffffff16565b60066000858152602001908152602001600020819055505b505050565b60008060009054906101000a900473ffffffffffffffffffffffffffffffffffffffff1673ffffffffffffffffffffffffffffffffffffffff163373ffffffffffffffffffffffffffffffffffffffff161415610f2f5760028080549050815481101515610ecc57fe5b9060005260206000209060020201905082816000018190555081816001019080519060200190610efd929190611d26565b50610f176001600280549050611cf090919063ffffffff16565b60056000858152602001908152602001600020819055505b505050565b6000806000806000806000809054906101000a900473ffffffffffffffffffffffffffffffffffffffff1673ffffffffffffffffffffffffffffffffffffffff163373ffffffffffffffffffffffffffffffffffffffff16141561119857600d60008b73ffffffffffffffffffffffffffffffffffffffff1673ffffffffffffffffffffffffffffffffffffffff168152602001908152602001600020549550610fdd89611bdb565b9450610fe888611bf8565b9350610ff387611c15565b9250610fff8484611c32565b9150600c8681548110151561101057fe5b90600052602060002090600b0201905080600901600084815260200190815260200160002060009054906101000a900460ff1615151561104f57600080fd5b600181600901600085815260200190815260200160002060006101000a81548160ff0219169083151502179055508181600301600086815260200190815260200160002060008282829054906101000a900460ff160192506101000a81548160ff021916908360ff160217905550606481600301600086815260200190815260200160002060009054906101000a900460ff1660ff16141561113b57600181600401600086815260200190815260200160002060006101000a81548160ff0219169083151502179055506111396111268686611c7b565b82600a0154611cb790919063ffffffff16565b505b6111966111488686611c7b565b600e60008d73ffffffffffffffffffffffffffffffffffffffff1673ffffffffffffffffffffffffffffffffffffffff16815260200190815260200160002054611cb790919063ffffffff16565b505b50505050505050505050565b60008060008060009054906101000a900473ffffffffffffffffffffffffffffffffffffffff1673ffffffffffffffffffffffffffffffffffffffff163373ffffffffffffffffffffffffffffffffffffffff1614156112995761120784611bdb565b9250600d60008673ffffffffffffffffffffffffffffffffffffffff1673ffffffffffffffffffffffffffffffffffffffff168152602001908152602001600020549150600c8281548110151561125a57fe5b90600052602060002090600b02019050806002018390806001815401808255809150509060018203906000526020600020016000909192909190915055505b5050505050565b60008060009054906101000a900473ffffffffffffffffffffffffffffffffffffffff1673ffffffffffffffffffffffffffffffffffffffff163373ffffffffffffffffffffffffffffffffffffffff16141561136d576004808054905081548110151561130a57fe5b906000526020600020906002020190508281600001819055508181600101908051906020019061133b929190611d26565b506113556001600480549050611cf090919063ffffffff16565b60076000858152602001908152602001600020819055505b505050565b60008061137d611da6565b600d60008573ffffffffffffffffffffffffffffffffffffffff1673ffffffffffffffffffffffffffffffffffffffff168152602001908152602001600020549150600c828154811015156113ce57fe5b90600052602060002090600b0201608060405190810160405290816000820160009054906101000a900473ffffffffffffffffffffffffffffffffffffffff1673ffffffffffffffffffffffffffffffffffffffff1673ffffffffffffffffffffffffffffffffffffffff168152602001600182018054600181600116156101000203166002900480601f0160208091040260200160405190810160405280929190818152602001828054600181600116156101000203166002900480156114d75780601f106114ac576101008083540402835291602001916114d7565b820191906000526020600020905b8154815290600101906020018083116114ba57829003601f168201915b505050505081526020016002820180548060200260200160405190810160405280929190818152602001828054801561152f57602002820191906000526020600020905b81548152602001906001019080831161151b575b50505050508152602001600a820154815250509050806060015192505050919050565b6000809054906101000a900473ffffffffffffffffffffffffffffffffffffffff1681565b6000806000809054906101000a900473ffffffffffffffffffffffffffffffffffffffff1673ffffffffffffffffffffffffffffffffffffffff163373ffffffffffffffffffffffffffffffffffffffff16141561165357600c805490509150600c828154811015156115e657fe5b90600052602060002090600b02019050838160000160006101000a81548173ffffffffffffffffffffffffffffffffffffffff021916908373ffffffffffffffffffffffffffffffffffffffff16021790555082816001019080519060200190611651929190611d26565b505b50505050565b6000806000809054906101000a900473ffffffffffffffffffffffffffffffffffffffff1673ffffffffffffffffffffffffffffffffffffffff163373ffffffffffffffffffffffffffffffffffffffff16141561171257600b6000868152602001908152602001600020549150600a828154811015156116d657fe5b9060005260206000209060050201905084816000018190555083816001019080519060200190611707929190611d26565b508281600401819055505b5050505050565b6000806000809054906101000a900473ffffffffffffffffffffffffffffffffffffffff1673ffffffffffffffffffffffffffffffffffffffff163373ffffffffffffffffffffffffffffffffffffffff16141561180b576009600086815260200190815260200160002054915060088281548110151561179657fe5b90600052602060002090600802019050806002016117b385611c15565b90806001815401808255809150509060018203906000526020600020016000909192909190915055508281600501600086815260200190815260200160002060006101000a81548160ff021916908360ff1602179055505b5050505050565b6000806000809054906101000a900473ffffffffffffffffffffffffffffffffffffffff1673ffffffffffffffffffffffffffffffffffffffff163373ffffffffffffffffffffffffffffffffffffffff161415611904576009600086815260200190815260200160002054915060088281548110151561188f57fe5b90600052602060002090600802019050806004016118ac85611d09565b90806001815401808255809150509060018203906000526020600020016000909192909190915055508281600701600086815260200190815260200160002060006101000a81548160ff021916908360ff1602179055505b5050505050565b6000806000806000806000809054906101000a900473ffffffffffffffffffffffffffffffffffffffff1673ffffffffffffffffffffffffffffffffffffffff163373ffffffffffffffffffffffffffffffffffffffff161415611b6f57600d60008b73ffffffffffffffffffffffffffffffffffffffff1673ffffffffffffffffffffffffffffffffffffffff1681526020019081526020016000205495506119b489611bdb565b94506119bf88611bf8565b93506119ca87611c15565b92506119d68484611c32565b9150600c868154811015156119e757fe5b90600052602060002090600b0201905080600701600084815260200190815260200160002060009054906101000a900460ff16151515611a2657600080fd5b600181600701600085815260200190815260200160002060006101000a81548160ff0219169083151502179055508181600301600086815260200190815260200160002060008282829054906101000a900460ff160192506101000a81548160ff021916908360ff160217905550606481600301600086815260200190815260200160002060009054906101000a900460ff1660ff161415611b6e57600181600401600086815260200190815260200160002060006101000a81548160ff021916908315150217905550611b10611afd8686611c7b565b82600a0154611cb790919063ffffffff16565b50611b6c611b1e8686611c7b565b600e60008d73ffffffffffffffffffffffffffffffffffffffff1673ffffffffffffffffffffffffffffffffffffffff16815260200190815260200160002054611cb790919063ffffffff16565b505b5b50505050505050505050565b6000809054906101000a900473ffffffffffffffffffffffffffffffffffffffff1673ffffffffffffffffffffffffffffffffffffffff163373ffffffffffffffffffffffffffffffffffffffff161415611bd857806001819055505b50565b6000600b6000838152602001908152602001600020549050919050565b600060096000838152602001908152602001600020549050919050565b600060056000838152602001908152602001600020549050919050565b6000600882815481101515611c4357fe5b9060005260206000209060080201600501600084815260200190815260200160002060009054906101000a900460ff16905092915050565b6000600a83815481101515611c8c57fe5b9060005260206000209060050201600301600083815260200190815260200160002054905092915050565b60008183019050828110151515611cca57fe5b80905092915050565b600060066000838152602001908152602001600020549050919050565b6000828211151515611cfe57fe5b818303905092915050565b600060076000838152602001908152602001600020549050919050565b828054600181600116156101000203166002900490600052602060002090601f016020900481019282601f10611d6757805160ff1916838001178555611d95565b82800160010185558215611d95579182015b82811115611d94578251825591602001919060010190611d79565b5b509050611da29190611de5565b5090565b608060405190810160405280600073ffffffffffffffffffffffffffffffffffffffff1681526020016060815260200160608152602001600081525090565b611e0791905b80821115611e03576000816000905550600101611deb565b5090565b905600a165627a7a723058204f5ec963064867449624dd9955c953606dc22ece47e5a917f58fdcedc8b0812b0029",
  "source": "pragma solidity ^0.4.23;\r\n\r\nimport \"./Course.sol\";\r\n\r\ncontract Student is Course {\r\n    struct student {\r\n        address Address;\r\n        string name;\r\n        uint256[] AllCourses;\r\n        mapping(uint256 => uint8) MilestoneProgress;\r\n        mapping(uint256 => bool) MilestonesDone;\r\n        mapping(uint256 => uint8) CoursesProgress;\r\n        mapping(uint256 => bool) CoursesDone;\r\n        mapping(uint256 => bool) VideosDone;\r\n        mapping(uint256 => bool) CodesDone;\r\n        mapping(uint256 => bool) QuizesDone;\r\n        uint256 Rewards;\r\n    }\r\n\r\n    student[] AllStudents;\r\n    mapping(address => uint256) StudentIndex;\r\n\r\n    mapping(address => uint256) balances;\r\n\r\n    function RegisterNewStudent(address _student, string _name) public onlyOwner {\r\n        uint256 studentIndex = AllStudents.length;\r\n        student storage newStudent = AllStudents[studentIndex];\r\n        newStudent.Address = _student;\r\n        newStudent.name = _name;\r\n    }\r\n\r\n    function EnrollNewCourse(address _student, uint256 _courseCode) public onlyOwner {\r\n        uint256 courseIndex = getCourseIndex(_courseCode);\r\n        uint256 studentIndex = StudentIndex[_student];\r\n        student storage _Student = AllStudents[studentIndex];\r\n        _Student.AllCourses.push(courseIndex);\r\n    }\r\n\r\n    function videoCompleted(address _student, uint256 _courseCode, uint256 _milestoneCode, uint256 _videoCode) public onlyOwner {\r\n        uint256 studentIndex = StudentIndex[_student];\r\n        uint256 courseIndex = getCourseIndex(_courseCode);\r\n        uint256 milestoneIndex = getMilestoneIndex(_milestoneCode);\r\n        uint256 videoIndex = getVideoIndex(_videoCode);\r\n        uint8 progress = getProgressByVideo(milestoneIndex, videoIndex);\r\n        student storage _Student = AllStudents[studentIndex];\r\n        require(!_Student.VideosDone[videoIndex]);\r\n        _Student.VideosDone[videoIndex] = true;\r\n        _Student.MilestoneProgress[milestoneIndex] += progress;\r\n        if (_Student.MilestoneProgress[milestoneIndex] == 100) {\r\n            _Student.MilestonesDone[milestoneIndex] = true;\r\n            _Student.Rewards.add(getMilestoneReward(courseIndex, milestoneIndex));\r\n            balances[_student].add(getMilestoneReward(courseIndex, milestoneIndex));\r\n        }\r\n    }\r\n\r\n    function codeProjectCompleted(address _student, uint256 _courseCode, uint256 _milestoneCode, uint256 _codeProjectCode) public onlyOwner {\r\n        uint256 studentIndex = StudentIndex[_student];\r\n        uint256 courseIndex = getCourseIndex(_courseCode);\r\n        uint256 milestoneIndex = getMilestoneIndex(_milestoneCode);\r\n        uint256 codeIndex = getVideoIndex(_codeProjectCode);\r\n        uint8 progress = getProgressByVideo(milestoneIndex, codeIndex);\r\n        student storage _Student = AllStudents[studentIndex];\r\n        require(!_Student.CodesDone[codeIndex]);\r\n        _Student.CodesDone[codeIndex] = true;\r\n        _Student.MilestoneProgress[milestoneIndex] += progress;\r\n        if (_Student.MilestoneProgress[milestoneIndex] == 100) {\r\n            _Student.MilestonesDone[milestoneIndex] = true;\r\n            _Student.Rewards.add(getMilestoneReward(courseIndex, milestoneIndex));\r\n        }\r\n        balances[_student].add(getMilestoneReward(courseIndex, milestoneIndex));\r\n    }\r\n\r\n    function quizCompleted(address _student, uint256 _courseCode, uint256 _milestoneCode, uint256 _quizCode) public onlyOwner {\r\n        uint256 studentIndex = StudentIndex[_student];\r\n        uint256 courseIndex = getCourseIndex(_courseCode);\r\n        uint256 milestoneIndex = getMilestoneIndex(_milestoneCode);\r\n        uint256 quizIndex = getVideoIndex(_quizCode);\r\n        uint8 progress = getProgressByVideo(milestoneIndex, quizIndex);\r\n        student storage _Student = AllStudents[studentIndex];\r\n        require(!_Student.QuizesDone[quizIndex]);\r\n        _Student.QuizesDone[quizIndex] = true;\r\n        _Student.MilestoneProgress[milestoneIndex] += progress;\r\n        if (_Student.MilestoneProgress[milestoneIndex] == 100) {\r\n            _Student.MilestonesDone[milestoneIndex] = true;\r\n            _Student.Rewards.add(getMilestoneReward(courseIndex, milestoneIndex));\r\n        }\r\n        balances[_student].add(getMilestoneReward(courseIndex, milestoneIndex));\r\n    }\r\n\r\n    function getStudentRewards(address _student) public view returns (uint256) {\r\n        uint256 index = StudentIndex[_student];\r\n        student memory student_ = AllStudents[index];\r\n        return student_.Rewards;\r\n    }\r\n}",
  "sourcePath": "G:\\Root\\Blockchain\\Proof of Knowledge\\contracts\\Student.sol",
  "compiler": {
    "name": "solc",
    "version": "0.4.23+commit.124ca40d.Emscripten.clang"
  },
  "schemaVersion": "2.0.0",
  "updatedAt": "2018-05-27T19:32:12.902Z"
}