{
  "contractName": "Student",
  "abi": [
    {
      "constant": false,
      "inputs": [
        {
          "name": "new_address",
          "type": "address"
        }
      ],
      "name": "upgrade",
      "outputs": [],
      "payable": false,
      "stateMutability": "nonpayable",
      "type": "function"
    },
    {
      "constant": false,
      "inputs": [
        {
          "name": "_MilestoneUniqueCode",
          "type": "uint256"
        },
        {
          "name": "_CodeProjectUniqueCode",
          "type": "uint256"
        },
        {
          "name": "_share",
          "type": "uint8"
        }
      ],
      "name": "addCodeProjectToMilestone",
      "outputs": [],
      "payable": false,
      "stateMutability": "nonpayable",
      "type": "function"
    },
    {
      "constant": false,
      "inputs": [
        {
          "name": "_courseCode",
          "type": "uint256"
        },
        {
          "name": "_milestoneCode",
          "type": "uint256"
        },
        {
          "name": "_reward",
          "type": "uint8"
        }
      ],
      "name": "addMilestoneToCourse",
      "outputs": [],
      "payable": false,
      "stateMutability": "nonpayable",
      "type": "function"
    },
    {
      "constant": true,
      "inputs": [],
      "name": "last_completed_migration",
      "outputs": [
        {
          "name": "",
          "type": "uint256"
        }
      ],
      "payable": false,
      "stateMutability": "view",
      "type": "function"
    },
    {
      "constant": false,
      "inputs": [
        {
          "name": "_uniqueCode",
          "type": "uint256"
        },
        {
          "name": "_name",
          "type": "string"
        }
      ],
      "name": "createMilestone",
      "outputs": [],
      "payable": false,
      "stateMutability": "nonpayable",
      "type": "function"
    },
    {
      "constant": false,
      "inputs": [
        {
          "name": "_uniqueCode",
          "type": "uint256"
        },
        {
          "name": "_name",
          "type": "string"
        }
      ],
      "name": "addCodeProject",
      "outputs": [],
      "payable": false,
      "stateMutability": "nonpayable",
      "type": "function"
    },
    {
      "constant": false,
      "inputs": [
        {
          "name": "_uniqueCode",
          "type": "uint256"
        },
        {
          "name": "_name",
          "type": "string"
        }
      ],
      "name": "addVideo",
      "outputs": [],
      "payable": false,
      "stateMutability": "nonpayable",
      "type": "function"
    },
    {
      "constant": false,
      "inputs": [
        {
          "name": "_uniqueCode",
          "type": "uint256"
        },
        {
          "name": "_name",
          "type": "string"
        }
      ],
      "name": "addQuiz",
      "outputs": [],
      "payable": false,
      "stateMutability": "nonpayable",
      "type": "function"
    },
    {
      "constant": true,
      "inputs": [],
      "name": "owner",
      "outputs": [
        {
          "name": "",
          "type": "address"
        }
      ],
      "payable": false,
      "stateMutability": "view",
      "type": "function"
    },
    {
      "constant": false,
      "inputs": [
        {
          "name": "_uniqueCode",
          "type": "uint256"
        },
        {
          "name": "_name",
          "type": "string"
        },
        {
          "name": "_reward",
          "type": "uint256"
        }
      ],
      "name": "createCourse",
      "outputs": [],
      "payable": false,
      "stateMutability": "nonpayable",
      "type": "function"
    },
    {
      "constant": false,
      "inputs": [
        {
          "name": "_MilestoneUniqueCode",
          "type": "uint256"
        },
        {
          "name": "_VideoUniqueCode",
          "type": "uint256"
        },
        {
          "name": "_share",
          "type": "uint8"
        }
      ],
      "name": "addVideoToMilestone",
      "outputs": [],
      "payable": false,
      "stateMutability": "nonpayable",
      "type": "function"
    },
    {
      "constant": false,
      "inputs": [
        {
          "name": "_MilestoneUniqueCode",
          "type": "uint256"
        },
        {
          "name": "_QuizUniqueCode",
          "type": "uint256"
        },
        {
          "name": "_share",
          "type": "uint8"
        }
      ],
      "name": "addQuizToMilestone",
      "outputs": [],
      "payable": false,
      "stateMutability": "nonpayable",
      "type": "function"
    },
    {
      "constant": false,
      "inputs": [
        {
          "name": "completed",
          "type": "uint256"
        }
      ],
      "name": "setCompleted",
      "outputs": [],
      "payable": false,
      "stateMutability": "nonpayable",
      "type": "function"
    },
    {
      "constant": false,
      "inputs": [
        {
          "name": "_student",
          "type": "address"
        },
        {
          "name": "_name",
          "type": "string"
        }
      ],
      "name": "RegisterNewStudent",
      "outputs": [],
      "payable": false,
      "stateMutability": "nonpayable",
      "type": "function"
    },
    {
      "constant": false,
      "inputs": [
        {
          "name": "_student",
          "type": "address"
        },
        {
          "name": "_courseCode",
          "type": "uint256"
        }
      ],
      "name": "EnrollNewCourse",
      "outputs": [],
      "payable": false,
      "stateMutability": "nonpayable",
      "type": "function"
    },
    {
      "constant": false,
      "inputs": [
        {
          "name": "_student",
          "type": "address"
        },
        {
          "name": "_courseCode",
          "type": "uint256"
        },
        {
          "name": "_milestoneCode",
          "type": "uint256"
        },
        {
          "name": "_videoCode",
          "type": "uint256"
        }
      ],
      "name": "videoCompleted",
      "outputs": [],
      "payable": false,
      "stateMutability": "nonpayable",
      "type": "function"
    },
    {
      "constant": false,
      "inputs": [
        {
          "name": "_student",
          "type": "address"
        },
        {
          "name": "_courseCode",
          "type": "uint256"
        },
        {
          "name": "_milestoneCode",
          "type": "uint256"
        },
        {
          "name": "_codeProjectCode",
          "type": "uint256"
        },
        {
          "name": "_result",
          "type": "uint8"
        }
      ],
      "name": "codeProjectCompleted",
      "outputs": [],
      "payable": false,
      "stateMutability": "nonpayable",
      "type": "function"
    },
    {
      "constant": false,
      "inputs": [
        {
          "name": "_student",
          "type": "address"
        },
        {
          "name": "_courseCode",
          "type": "uint256"
        },
        {
          "name": "_milestoneCode",
          "type": "uint256"
        },
        {
          "name": "_quizCode",
          "type": "uint256"
        },
        {
          "name": "_result",
          "type": "uint8"
        }
      ],
      "name": "quizCompleted",
      "outputs": [],
      "payable": false,
      "stateMutability": "nonpayable",
      "type": "function"
    },
    {
      "constant": true,
      "inputs": [
        {
          "name": "_student",
          "type": "address"
        }
      ],
      "name": "getStudentRewards",
      "outputs": [
        {
          "name": "",
          "type": "uint256"
        }
      ],
      "payable": false,
      "stateMutability": "view",
      "type": "function"
    }
  ],
  "bytecode": "0x6080604052336000806101000a81548173ffffffffffffffffffffffffffffffffffffffff021916908373ffffffffffffffffffffffffffffffffffffffff160217905550611ef0806100536000396000f300608060405260043610610107576000357c0100000000000000000000000000000000000000000000000000000000900463ffffffff1680630900f0101461010c57806319c16ce81461014f57806333f2122c1461019357806343f9ed72146101d7578063445df0ac1461024557806344d0be641461027057806352c63818146102e357806357c4699c14610356578063639c062e146103c957806369f6af9e146104165780636dd9afa4146104895780638da5cb5b146104e0578063a7c6885a14610537578063d3dc5c3a146105a5578063d7237f021461062e578063e1a2d361146106ab578063f485d1b6146106ef578063f6a1eeb614610733578063fdacd57614610794575b600080fd5b34801561011857600080fd5b5061014d600480360381019080803573ffffffffffffffffffffffffffffffffffffffff1690602001909291905050506107c1565b005b34801561015b57600080fd5b506101916004803603810190808035906020019092919080359060200190929190803560ff1690602001909291905050506108a9565b005b34801561019f57600080fd5b506101d56004803603810190808035906020019092919080359060200190929190803560ff1690602001909291905050506109a2565b005b3480156101e357600080fd5b50610243600480360381019080803573ffffffffffffffffffffffffffffffffffffffff169060200190929190803590602001909291908035906020019092919080359060200190929190803560ff169060200190929190505050610a92565b005b34801561025157600080fd5b5061025a610d2b565b6040518082815260200191505060405180910390f35b34801561027c57600080fd5b506102e160048036038101908080359060200190929190803590602001908201803590602001908080601f0160208091040260200160405190810160405280939291908181526020018383808284378201915050505050509192919290505050610d31565b005b3480156102ef57600080fd5b5061035460048036038101908080359060200190929190803590602001908201803590602001908080601f0160208091040260200160405190810160405280939291908181526020018383808284378201915050505050509192919290505050610dd3565b005b34801561036257600080fd5b506103c760048036038101908080359060200190929190803590602001908201803590602001908080601f0160208091040260200160405190810160405280939291908181526020018383808284378201915050505050509192919290505050610ea5565b005b3480156103d557600080fd5b50610414600480360381019080803573ffffffffffffffffffffffffffffffffffffffff16906020019092919080359060200190929190505050610f77565b005b34801561042257600080fd5b5061048760048036038101908080359060200190929190803590602001908201803590602001908080601f0160208091040260200160405190810160405280939291908181526020018383808284378201915050505050509192919290505050611073565b005b34801561049557600080fd5b506104ca600480360381019080803573ffffffffffffffffffffffffffffffffffffffff169060200190929190505050611145565b6040518082815260200191505060405180910390f35b3480156104ec57600080fd5b506104f5611325565b604051808273ffffffffffffffffffffffffffffffffffffffff1673ffffffffffffffffffffffffffffffffffffffff16815260200191505060405180910390f35b34801561054357600080fd5b506105a3600480360381019080803573ffffffffffffffffffffffffffffffffffffffff169060200190929190803590602001909291908035906020019092919080359060200190929190803560ff16906020019092919050505061134a565b005b3480156105b157600080fd5b5061062c600480360381019080803573ffffffffffffffffffffffffffffffffffffffff169060200190929190803590602001908201803590602001908080601f01602080910402602001604051908101604052809392919081815260200183838082843782019150505050505091929192905050506115e3565b005b34801561063a57600080fd5b506106a960048036038101908080359060200190929190803590602001908201803590602001908080601f0160208091040260200160405190810160405280939291908181526020018383808284378201915050505050509192919290803590602001909291905050506116c5565b005b3480156106b757600080fd5b506106ed6004803603810190808035906020019092919080359060200190929190803560ff169060200190929190505050611785565b005b3480156106fb57600080fd5b506107316004803603810190808035906020019092919080359060200190929190803560ff16906020019092919050505061187e565b005b34801561073f57600080fd5b50610792600480360381019080803573ffffffffffffffffffffffffffffffffffffffff169060200190929190803590602001909291908035906020019092919080359060200190929190505050611977565b005b3480156107a057600080fd5b506107bf60048036038101908080359060200190929190505050611be7565b005b60008060009054906101000a900473ffffffffffffffffffffffffffffffffffffffff1673ffffffffffffffffffffffffffffffffffffffff163373ffffffffffffffffffffffffffffffffffffffff1614156108a5578190508073ffffffffffffffffffffffffffffffffffffffff1663fdacd5766001546040518263ffffffff167c010000000000000000000000000000000000000000000000000000000002815260040180828152602001915050600060405180830381600087803b15801561088c57600080fd5b505af11580156108a0573d6000803e3d6000fd5b505050505b5050565b6000806000809054906101000a900473ffffffffffffffffffffffffffffffffffffffff1673ffffffffffffffffffffffffffffffffffffffff163373ffffffffffffffffffffffffffffffffffffffff16141561099b576009600086815260200190815260200160002054915060088281548110151561092657fe5b906000526020600020906008020190508060030161094385611c47565b90806001815401808255809150509060018203906000526020600020016000909192909190915055508281600601600086815260200190815260200160002060006101000a81548160ff021916908360ff1602179055505b5050505050565b6000806000809054906101000a900473ffffffffffffffffffffffffffffffffffffffff1673ffffffffffffffffffffffffffffffffffffffff163373ffffffffffffffffffffffffffffffffffffffff161415610a8b57600b6000868152602001908152602001600020549150600a82815481101515610a1f57fe5b9060005260206000209060050201905080600201610a3c85611c64565b90806001815401808255809150509060018203906000526020600020016000909192909190915055508260ff16816003016000610a7887611c64565b8152602001908152602001600020819055505b5050505050565b6000806000806000806000809054906101000a900473ffffffffffffffffffffffffffffffffffffffff1673ffffffffffffffffffffffffffffffffffffffff163373ffffffffffffffffffffffffffffffffffffffff161415610d1e57600d60008c73ffffffffffffffffffffffffffffffffffffffff1673ffffffffffffffffffffffffffffffffffffffff168152602001908152602001600020549550610b3b8a611c81565b9450610b4689611c64565b9350610b5188611c9e565b9250610b5d8484611cbb565b9150600c86815481101515610b6e57fe5b90600052602060002090600d0201905080600a01600084815260200190815260200160002060009054906101000a900460ff16151515610bad57600080fd5b600181600a01600085815260200190815260200160002060006101000a81548160ff0219169083151502179055508181600301600086815260200190815260200160002060008282829054906101000a900460ff160192506101000a81548160ff021916908360ff160217905550606481600301600086815260200190815260200160002060009054906101000a900460ff1660ff161415610cc157600181600401600086815260200190815260200160002060006101000a81548160ff021916908315150217905550610cbf610cac6064610c9e8a60ff16610c908a8a611d04565b611d4090919063ffffffff16565b611d7890919063ffffffff16565b82600c0154611d8e90919063ffffffff16565b505b610d1c610cce8686611d04565b600e60008e73ffffffffffffffffffffffffffffffffffffffff1673ffffffffffffffffffffffffffffffffffffffff16815260200190815260200160002054611d8e90919063ffffffff16565b505b5050505050505050505050565b60015481565b60008060009054906101000a900473ffffffffffffffffffffffffffffffffffffffff1673ffffffffffffffffffffffffffffffffffffffff163373ffffffffffffffffffffffffffffffffffffffff161415610dce5760088080549050815481101515610d9b57fe5b9060005260206000209060080201905082816000018190555081816001019080519060200190610dcc929190611de0565b505b505050565b60008060009054906101000a900473ffffffffffffffffffffffffffffffffffffffff1673ffffffffffffffffffffffffffffffffffffffff163373ffffffffffffffffffffffffffffffffffffffff161415610ea05760038080549050815481101515610e3d57fe5b9060005260206000209060020201905082816000018190555081816001019080519060200190610e6e929190611de0565b50610e886001600380549050611daa90919063ffffffff16565b60066000858152602001908152602001600020819055505b505050565b60008060009054906101000a900473ffffffffffffffffffffffffffffffffffffffff1673ffffffffffffffffffffffffffffffffffffffff163373ffffffffffffffffffffffffffffffffffffffff161415610f725760028080549050815481101515610f0f57fe5b9060005260206000209060020201905082816000018190555081816001019080519060200190610f40929190611de0565b50610f5a6001600280549050611daa90919063ffffffff16565b60056000858152602001908152602001600020819055505b505050565b60008060008060009054906101000a900473ffffffffffffffffffffffffffffffffffffffff1673ffffffffffffffffffffffffffffffffffffffff163373ffffffffffffffffffffffffffffffffffffffff16141561106c57610fda84611c81565b9250600d60008673ffffffffffffffffffffffffffffffffffffffff1673ffffffffffffffffffffffffffffffffffffffff168152602001908152602001600020549150600c8281548110151561102d57fe5b90600052602060002090600d02019050806002018390806001815401808255809150509060018203906000526020600020016000909192909190915055505b5050505050565b60008060009054906101000a900473ffffffffffffffffffffffffffffffffffffffff1673ffffffffffffffffffffffffffffffffffffffff163373ffffffffffffffffffffffffffffffffffffffff16141561114057600480805490508154811015156110dd57fe5b906000526020600020906002020190508281600001819055508181600101908051906020019061110e929190611de0565b506111286001600480549050611daa90919063ffffffff16565b60076000858152602001908152602001600020819055505b505050565b600080611150611e60565b600d60008573ffffffffffffffffffffffffffffffffffffffff1673ffffffffffffffffffffffffffffffffffffffff168152602001908152602001600020549150600c828154811015156111a157fe5b90600052602060002090600d0201608060405190810160405290816000820160009054906101000a900473ffffffffffffffffffffffffffffffffffffffff1673ffffffffffffffffffffffffffffffffffffffff1673ffffffffffffffffffffffffffffffffffffffff168152602001600182018054600181600116156101000203166002900480601f0160208091040260200160405190810160405280929190818152602001828054600181600116156101000203166002900480156112aa5780601f1061127f576101008083540402835291602001916112aa565b820191906000526020600020905b81548152906001019060200180831161128d57829003601f168201915b505050505081526020016002820180548060200260200160405190810160405280929190818152602001828054801561130257602002820191906000526020600020905b8154815260200190600101908083116112ee575b50505050508152602001600c820154815250509050806060015192505050919050565b6000809054906101000a900473ffffffffffffffffffffffffffffffffffffffff1681565b6000806000806000806000809054906101000a900473ffffffffffffffffffffffffffffffffffffffff1673ffffffffffffffffffffffffffffffffffffffff163373ffffffffffffffffffffffffffffffffffffffff1614156115d657600d60008c73ffffffffffffffffffffffffffffffffffffffff1673ffffffffffffffffffffffffffffffffffffffff1681526020019081526020016000205495506113f38a611c81565b94506113fe89611c64565b935061140988611c9e565b92506114158484611cbb565b9150600c8681548110151561142657fe5b90600052602060002090600d0201905080600801600084815260200190815260200160002060009054906101000a900460ff1615151561146557600080fd5b600181600801600085815260200190815260200160002060006101000a81548160ff0219169083151502179055508181600301600086815260200190815260200160002060008282829054906101000a900460ff160192506101000a81548160ff021916908360ff160217905550606481600301600086815260200190815260200160002060009054906101000a900460ff1660ff16141561157957600181600401600086815260200190815260200160002060006101000a81548160ff02191690831515021790555061157761156460646115568a60ff166115488a8a611d04565b611d4090919063ffffffff16565b611d7890919063ffffffff16565b82600c0154611d8e90919063ffffffff16565b505b6115d46115868686611d04565b600e60008e73ffffffffffffffffffffffffffffffffffffffff1673ffffffffffffffffffffffffffffffffffffffff16815260200190815260200160002054611d8e90919063ffffffff16565b505b5050505050505050505050565b6000806000809054906101000a900473ffffffffffffffffffffffffffffffffffffffff1673ffffffffffffffffffffffffffffffffffffffff163373ffffffffffffffffffffffffffffffffffffffff1614156116bf57600c805490509150600c8281548110151561165257fe5b90600052602060002090600d02019050838160000160006101000a81548173ffffffffffffffffffffffffffffffffffffffff021916908373ffffffffffffffffffffffffffffffffffffffff160217905550828160010190805190602001906116bd929190611de0565b505b50505050565b6000806000809054906101000a900473ffffffffffffffffffffffffffffffffffffffff1673ffffffffffffffffffffffffffffffffffffffff163373ffffffffffffffffffffffffffffffffffffffff16141561177e57600b6000868152602001908152602001600020549150600a8281548110151561174257fe5b9060005260206000209060050201905084816000018190555083816001019080519060200190611773929190611de0565b508281600401819055505b5050505050565b6000806000809054906101000a900473ffffffffffffffffffffffffffffffffffffffff1673ffffffffffffffffffffffffffffffffffffffff163373ffffffffffffffffffffffffffffffffffffffff161415611877576009600086815260200190815260200160002054915060088281548110151561180257fe5b906000526020600020906008020190508060020161181f85611c9e565b90806001815401808255809150509060018203906000526020600020016000909192909190915055508281600501600086815260200190815260200160002060006101000a81548160ff021916908360ff1602179055505b5050505050565b6000806000809054906101000a900473ffffffffffffffffffffffffffffffffffffffff1673ffffffffffffffffffffffffffffffffffffffff163373ffffffffffffffffffffffffffffffffffffffff16141561197057600960008681526020019081526020016000205491506008828154811015156118fb57fe5b906000526020600020906008020190508060040161191885611dc3565b90806001815401808255809150509060018203906000526020600020016000909192909190915055508281600701600086815260200190815260200160002060006101000a81548160ff021916908360ff1602179055505b5050505050565b6000806000806000806000809054906101000a900473ffffffffffffffffffffffffffffffffffffffff1673ffffffffffffffffffffffffffffffffffffffff163373ffffffffffffffffffffffffffffffffffffffff161415611bdb57600d60008b73ffffffffffffffffffffffffffffffffffffffff1673ffffffffffffffffffffffffffffffffffffffff168152602001908152602001600020549550611a2089611c81565b9450611a2b88611c64565b9350611a3687611c9e565b9250611a428484611cbb565b9150600c86815481101515611a5357fe5b90600052602060002090600d0201905080600701600084815260200190815260200160002060009054906101000a900460ff16151515611a9257600080fd5b600181600701600085815260200190815260200160002060006101000a81548160ff0219169083151502179055508181600301600086815260200190815260200160002060008282829054906101000a900460ff160192506101000a81548160ff021916908360ff160217905550606481600301600086815260200190815260200160002060009054906101000a900460ff1660ff161415611bda57600181600401600086815260200190815260200160002060006101000a81548160ff021916908315150217905550611b7c611b698686611d04565b82600c0154611d8e90919063ffffffff16565b50611bd8611b8a8686611d04565b600e60008d73ffffffffffffffffffffffffffffffffffffffff1673ffffffffffffffffffffffffffffffffffffffff16815260200190815260200160002054611d8e90919063ffffffff16565b505b5b50505050505050505050565b6000809054906101000a900473ffffffffffffffffffffffffffffffffffffffff1673ffffffffffffffffffffffffffffffffffffffff163373ffffffffffffffffffffffffffffffffffffffff161415611c4457806001819055505b50565b600060066000838152602001908152602001600020549050919050565b600060096000838152602001908152602001600020549050919050565b6000600b6000838152602001908152602001600020549050919050565b600060056000838152602001908152602001600020549050919050565b6000600882815481101515611ccc57fe5b9060005260206000209060080201600501600084815260200190815260200160002060009054906101000a900460ff16905092915050565b6000600a83815481101515611d1557fe5b9060005260206000209060050201600301600083815260200190815260200160002054905092915050565b600080831415611d535760009050611d72565b8183029050818382811515611d6457fe5b04141515611d6e57fe5b8090505b92915050565b60008183811515611d8557fe5b04905092915050565b60008183019050828110151515611da157fe5b80905092915050565b6000828211151515611db857fe5b818303905092915050565b600060076000838152602001908152602001600020549050919050565b828054600181600116156101000203166002900490600052602060002090601f016020900481019282601f10611e2157805160ff1916838001178555611e4f565b82800160010185558215611e4f579182015b82811115611e4e578251825591602001919060010190611e33565b5b509050611e5c9190611e9f565b5090565b608060405190810160405280600073ffffffffffffffffffffffffffffffffffffffff1681526020016060815260200160608152602001600081525090565b611ec191905b80821115611ebd576000816000905550600101611ea5565b5090565b905600a165627a7a72305820c0b993986f56dc711a7b32043412d288de69713cb152587546d3eae218010eda0029",
  "source": "pragma solidity ^0.4.23;\r\n\r\nimport \"./Course.sol\";\r\n\r\ncontract Student is Course {\r\n    struct student {\r\n        address Address;\r\n        string name;\r\n        uint256[] AllCourses;\r\n        mapping(uint256 => uint8) MilestoneProgress;\r\n        mapping(uint256 => bool) MilestonesDone;\r\n        mapping(uint256 => uint8) CoursesProgress;\r\n        mapping(uint256 => bool) CoursesDone;\r\n        mapping(uint256 => bool) VideosDone;\r\n        mapping(uint256 => bool) CodesDone;\r\n        mapping(uint256 => uint8) CodeResult;\r\n        mapping(uint256 => bool) QuizesDone;\r\n        mapping(uint256 => uint8) QuizResult;\r\n\r\n        uint256 Rewards;\r\n    }\r\n\r\n    student[] AllStudents;\r\n    mapping(address => uint256) StudentIndex;\r\n\r\n    mapping(address => uint256) balances;\r\n\r\n    function RegisterNewStudent(address _student, string _name) public onlyOwner {\r\n        uint256 studentIndex = AllStudents.length;\r\n        student storage newStudent = AllStudents[studentIndex];\r\n        newStudent.Address = _student;\r\n        newStudent.name = _name;\r\n    }\r\n\r\n    function EnrollNewCourse(address _student, uint256 _courseCode) public onlyOwner {\r\n        uint256 courseIndex = getCourseIndex(_courseCode);\r\n        uint256 studentIndex = StudentIndex[_student];\r\n        student storage _Student = AllStudents[studentIndex];\r\n        _Student.AllCourses.push(courseIndex);\r\n    }\r\n\r\n    function videoCompleted(address _student, uint256 _courseCode, uint256 _milestoneCode, uint256 _videoCode) public onlyOwner {\r\n        uint256 studentIndex = StudentIndex[_student];\r\n        uint256 courseIndex = getCourseIndex(_courseCode);\r\n        uint256 milestoneIndex = getMilestoneIndex(_milestoneCode);\r\n        uint256 videoIndex = getVideoIndex(_videoCode);\r\n        uint8 progress = getProgressByVideo(milestoneIndex, videoIndex);\r\n        student storage _Student = AllStudents[studentIndex];\r\n        require(!_Student.VideosDone[videoIndex]);\r\n        _Student.VideosDone[videoIndex] = true;\r\n        _Student.MilestoneProgress[milestoneIndex] += progress;\r\n        if (_Student.MilestoneProgress[milestoneIndex] == 100) {\r\n            _Student.MilestonesDone[milestoneIndex] = true;\r\n            _Student.Rewards.add(getMilestoneReward(courseIndex, milestoneIndex));\r\n            balances[_student].add(getMilestoneReward(courseIndex, milestoneIndex));\r\n        }\r\n    }\r\n\r\n    function codeProjectCompleted(\r\n        address _student, \r\n        uint256 _courseCode, \r\n        uint256 _milestoneCode, \r\n        uint256 _codeProjectCode, \r\n        uint8 _result) \r\n        public onlyOwner \r\n    {\r\n        uint256 studentIndex = StudentIndex[_student];\r\n        uint256 courseIndex = getCourseIndex(_courseCode);\r\n        uint256 milestoneIndex = getMilestoneIndex(_milestoneCode);\r\n        uint256 codeIndex = getVideoIndex(_codeProjectCode);\r\n        uint8 progress = getProgressByVideo(milestoneIndex, codeIndex);\r\n        student storage _Student = AllStudents[studentIndex];\r\n        require(!_Student.CodesDone[codeIndex]);\r\n        _Student.CodesDone[codeIndex] = true;\r\n        _Student.MilestoneProgress[milestoneIndex] += progress;\r\n        if (_Student.MilestoneProgress[milestoneIndex] == 100) {\r\n            _Student.MilestonesDone[milestoneIndex] = true;\r\n            _Student.Rewards.add(getMilestoneReward(courseIndex, milestoneIndex).mul(_result).div(100));\r\n        }\r\n        balances[_student].add(getMilestoneReward(courseIndex, milestoneIndex));\r\n    }\r\n\r\n    function quizCompleted(\r\n        address _student, \r\n        uint256 _courseCode, \r\n        uint256 _milestoneCode, \r\n        uint256 _quizCode,\r\n        uint8 _result) \r\n        public onlyOwner \r\n    {\r\n        uint256 studentIndex = StudentIndex[_student];\r\n        uint256 courseIndex = getCourseIndex(_courseCode);\r\n        uint256 milestoneIndex = getMilestoneIndex(_milestoneCode);\r\n        uint256 quizIndex = getVideoIndex(_quizCode);\r\n        uint8 progress = getProgressByVideo(milestoneIndex, quizIndex);\r\n        student storage _Student = AllStudents[studentIndex];\r\n        require(!_Student.QuizesDone[quizIndex]);\r\n        _Student.QuizesDone[quizIndex] = true;\r\n        _Student.MilestoneProgress[milestoneIndex] += progress;\r\n        if (_Student.MilestoneProgress[milestoneIndex] == 100) {\r\n            _Student.MilestonesDone[milestoneIndex] = true;\r\n            _Student.Rewards.add(getMilestoneReward(courseIndex, milestoneIndex).mul(_result).div(100));\r\n        }\r\n        balances[_student].add(getMilestoneReward(courseIndex, milestoneIndex));\r\n    }\r\n\r\n    function getStudentRewards(address _student) public view returns (uint256) {\r\n        uint256 index = StudentIndex[_student];\r\n        student memory student_ = AllStudents[index];\r\n        return student_.Rewards;\r\n    }\r\n}",
  "sourcePath": "G:\\Root\\Blockchain\\Proof of Knowledge\\contracts\\Student.sol",
  "compiler": {
    "name": "solc",
    "version": "0.4.23+commit.124ca40d.Emscripten.clang"
  },
  "schemaVersion": "2.0.0",
  "updatedAt": "2018-05-28T11:00:47.601Z"
}